:100000000000022015290000E128000095280000CA
:1000100095280000952800009528000095280000EC
:10002000952800009528000095280000E128000090
:10003000E128000095280000AD070000D909000064
:10004000E1280000E1280000E1280000E12800008C
:10005000E1280000E1280000E1280000E12800007C
:10006000E1280000E1280000E1280000E12800006C
:10007000E1280000E1280000E1280000E12800005C
:10008000E1280000E1280000E1280000E12800004C
:10009000E1280000E1280000E1280000E12800003C
:1000A0008D9D0000A19D0000E1280000E1280000D6
:1000B000E1280000E1280000E1280000253B0000C5
:1000C000E1280000D1460000E1280000F14F0000C7
:1000D000E128000089590000E1280000E128000023
:1000E000E1280000E1280000E1280000E1280000EC
:1000F000E1280000E1280000E1280000E1280000DC
:100100001D1C0000391C0000551C0000711C000063
:10011000E128000031770000E1280000E12800001C
:10012000E1280000E1280000E1280000E1280000AB
:10013000E1280000E1280000E1280000E12800009B
:100140006D040000E128000059620000E128000071
:10015000296B0000E1280000E1280000E1280000F0
:10016000E1280000E1280000B59D0000E128000022
:10017000E1280000E1280000E1280000E12800005B
:10018000E1280000E1280000E1280000E12800004B
:10019000E1280000E1280000FFFFFFFFFFFFFFFF55
:1001A000FFFFFFFFFFFFFFFFFFFFFFFFFFFFFFFF5F
:1001B000FFFFFFFFFFFFFFFFFFFFFFFFFFFFFFFF4F
:1001C000FFFFFFFFFFFFFFFFFFFFFFFFFFFFFFFF3F
:1001D000FFFFFFFFFFFFFFFFFFFFFFFFFFFFFFFF2F
:10040000FFFFFFFFFFFFFFFFFFFFFFFFDEF9FFFF23
:1004100010B5054C237833B9044B13B10448AFF33E
:1004200000800123237010BDD011FF1F00000000C9
:10043000C0630100084B10B51BB108490848AFF371
:1004400000800848036803B910BD074B002BFBD0A0
:10045000BDE81040184700BF00000000D411FF1F86
:10046000C0630100D011FF1F0000000080B584B000
:1004700000AF284A274B1B6843F080731360264A5D
:10048000254B1B6843F001031360244B1B68BB60C2
:10049000234B1B68FB60FB68002B23D0FB681B7A97
:1004A000002B1BD01D4B1B687B60FB681B681B6807
:1004B000F8689847194B1A687B68D31A1B097B6048
:1004C0007B689AB2FB689A80FB68DB881A467B6877
:1004D0009A4203D27B689AB2FB68DA80FB685B6958
:1004E000FB60D8E70D4B1A68BB68D31A1B09BB60C9
:1004F000BB689AB20B4B1A800B4B1B881A46BB6821
:100500009A4203D2BB689AB2074B1A8000BF1037D9
:10051000BD4680BDFCED00E0001000E0041000E0EE
:10052000F011FF1FEC11FF1FEE11FF1F80B485B00B
:1005300000AF78600B46FB700023FB6072B6FB785F
:1005400083F00103DBB2002B20D07B681B68002BFB
:100550001CD07B681B790F2B18D8504B1B881A4670
:100560007B681B7942FA03F303F00103002B0DD0E3
:100570007B681B681A467B681B7903F1007303F5DF
:1005800090635B019A4201D162B682E0434B1B88C3
:100590001A46FB6842FA03F303F00103002B66D10D
:1005A0000122FB6802FA03F31AB23C4B1B881BB210
:1005B00013431BB29AB2394B1A8062B600BFFB6874
:1005C000DAB27B681A71364A354B1B6843F0020376
:1005D0001360344A334B1B6843F002031360324B01
:1005E00082221A60314BFA68D2B21A70304BFA6824
:1005F000D2B21A702F4BFA68D2B21A702E4BFA6828
:10060000D2B21A70FB6803F1007303F590635B01CB
:100610001A467B681A607B681B68BB60BB681A1D42
:10062000BA6000221A60BB681A1DBA6000221A6004
:10063000BB681A1DBA6000221A60BB681A1DBA6036
:1006400000221A60BB681A1DBA6000221A60BB68DB
:100650001A1DBA6000221A60BB681A1DBA60002217
:100660001A60BB681A1DBA6000221A6011E0FB68AC
:100670000133FB60FB680F2B8CBF01230023DBB22F
:10068000002B83D062B67B6800221A607B68102240
:100690001A711437BD465DF8047B7047F411FF1FD3
:1006A000408004403C800440008000401A800040AC
:1006B0001E800040188000401F80004080B483B03E
:1006C00000AF78607B681B790F2B1CD8114A7B68C0
:1006D0001B79137072B67B681B791A46012393400D
:1006E0001BB2DB431AB20C4B1B881BB213401BB26C
:1006F0009AB2094B1A8062B67B6810221A717B6825
:1007000000221A6000E000BF0C37BD465DF8047B94
:10071000704700BF1A800040F411FF1F80B483B0FF
:1007200000AFEFF310837B6072B67B68002B0CBFC9
:1007300001230023DBB218460C37BD465DF8047B6D
:10074000704700BF80B483B000AF0346FB71FB79F4
:10075000002B00D062B600BF0C37BD465DF8047BAD
:10076000704700BF80B483B000AFEFF310837B60AD
:1007700072B67B68002B0CBF01230023DBB2184646
:100780000C37BD465DF8047B704700BF80B483B072
:1007900000AF0346FB71FB79002B00D062B600BFAF
:1007A0000C37BD465DF8047B704700BF80B500AFD5
:1007B00000F002F800BF80BD80B582B000AFFFF747
:1007C000ADFF0346FB71154B1B683B603B68002B7C
:1007D0001BD03B685B69114A1360104B1B68002BF0
:1007E00004D00E4B1B6800229A6102E00C4B0022E1
:1007F0001A60FB791846FFF7A5FF3B6800225A777D
:100800003B689B6838689847D9E7FB791846FFF73B
:1008100099FF00BF00BF0837BD4680BD0012FF1F13
:100820000412FF1F80B485B000AF78603A4B1B689C
:10083000002B09D17B6800229A607B680022DA6075
:10084000354A7B6813605EE07B681A68324B1B6830
:100850001B689A4217D2304B1A687B689A607B6893
:100860000022DA602C4B1B687A68DA602A4B1B681E
:10087000294A126811687A6812688A1A1A60264A28
:100880007B6813603FE0244B1B68FB60FB689B6840
:10089000002B28D07B681A68FB681B68D21A7B681B
:1008A0001A60FB689B68FB607B681A68FB681B68C2
:1008B0009A42EBD27B68FA689A60FB68DA687B68D8
:1008C000DA60FB687A68DA607B68DB687A689A606D
:1008D000FB681A687B681B68D21AFB681A607B6821
:1008E00002221A7512E07B681A68FB681B68D21A2C
:1008F0007B681A607B6800229A607B68FA68DA601D
:10090000FB687A689A607B6802221A751437BD46C4
:100910005DF8047B704700BF1012FF1F80B586B0E2
:1009200000AF2B4B1B687B617B69002B31D07B694F
:100930001B68002B05D07B691B685A1E7B691A60F7
:1009400027E07B699B68FB60FB68002B02D0FB689B
:100950000022DA601E4AFB6813607B6900221A7568
:100960007B691B69BB60BB681B681B687A690021D7
:10097000B86898477B695B68002B06D07B695A682A
:100980007B691A607869FFF74DFF114B1B687B612B
:10099000CAE7FFF7E7FE0346FB710E4B1B683B619E
:1009A0000C4B00221A60FB791846FFF7EFFE3B69FB
:1009B000002B08D03B699B683B603869FFF732FF2A
:1009C0003B683B61F3E700BF1837BD4680BD00BF01
:1009D0001012FF1F0C12FF1F80B500AF044B1B68E5
:1009E0000133034A1360FFF799FF00BF80BD00BFCA
:1009F0002C12FF1F80B582B000AF786039603B6871
:100A00005A08064B13443A68B3FBF2F3184602F057
:100A100073FB00BF0837BD4680BD00BF001C4E0EF3
:100A200080B584B000AFF860B9607A60BB685A08DE
:100A3000074B1344BA68B3FBF2F3184602F05CFBB1
:100A4000786802F0F7FB00BF1037BD4680BD00BFDD
:100A5000001C4E0E80B582B000AF786002F070FCD2
:100A600000BF0837BD4680BD80B582B000AF78605A
:100A70000B46FB70FB78184602F0D8FC00BF083725
:100A8000BD4680BD80B582B000AF78600B46FB707C
:100A9000FB78184602F058FD00BF0837BD4680BD00
:100AA00080B582B000AF78600B46FB701346BB7018
:100AB000BA78FB781146184602F0DEFC00BF083712
:100AC000BD4680BD80B582B000AF78600B46FB703C
:100AD000FB78184602F086FD0346002B14BF012365
:100AE0000023DBB218460837BD4680BD80B582B012
:100AF00000AF78600B46FB70FB78184602F0A2FD51
:100B00000346002B14BF01230023DBB2184608372D
:100B1000BD4680BD80B582B000AF786002F030FF86
:100B2000034618460837BD4680BD00BF80B582B079
:100B300000AF786002F092FF034618460837BD46C2
:100B400080BD00BF80B582B000AF786002F03AFF90
:100B5000034618460837BD4680BD00BF80B582B049
:100B600000AF786002F0DCFE00BF0837BD4680BDF4
:100B700080B582B000AF786002F09CFF00BF0837FC
:100B8000BD4680BD80B582B000AF786002F0D6FE71
:100B9000034618460837BD4680BD00BF80B582B009
:100BA00000AF78600B46FB70FB78184602F088FDBA
:100BB000012318460837BD4680BD00BF80B582B00E
:100BC00000AF786039607B681B681B683A68D2B2F6
:100BD000114678689847034618460837BD4680BDD9
:100BE00080B582B000AF786039607B681B681B6895
:100BF0003A68D2B2114678689847034618460837D3
:100C0000BD4680BD80B582B000AF786039607B683A
:100C10001B681B683A68D2B2114678689847034649
:100C200018460837BD4680BD80B582B000AF7860F9
:100C300039607B681B681B683A68D2B211467868D5
:100C40009847034618460837BD4680BD80B584B036
:100C500000AFF860B9607A607968B86802F0BCFDEE
:100C60007B6818461037BD4680BD00BF80B584B094
:100C700000AF78603960386812F020FDF860F968DC
:100C8000386802F0A9FDFB6818461037BD4680BDE4
:100C900080B582B000AF78603960386802F010FD2E
:100CA000012318460837BD4680BD00BF80B400AFA1
:100CB00000BFBD465DF8047B704700BF80B582B0C1
:100CC00000AF786039603B685A08064B13443A68B5
:100CD000B3FBF2F3184603F01FF800BF0837BD4618
:100CE00080BD00BF001C4E0E80B584B000AFF86020
:100CF000B9607A60BB685A08074B1344BA68B3FB03
:100D0000F2F3184603F008F8786803F093F800BF90
:100D10001037BD4680BD00BF001C4E0E80B582B0AE
:100D200000AF786003F00CF900BF0837BD4680BD06
:100D300080B582B000AF78600B46FB70FB78184638
:100D400003F062F900BF0837BD4680BD80B582B0B0
:100D500000AF78600B46FB70FB78184603F0D4F9BF
:100D600000BF0837BD4680BD80B582B000AF786057
:100D70000B46FB701346BB70BA78FB7811461846D9
:100D800003F068F900BF0837BD4680BD80B582B06A
:100D900000AF78600B46FB70FB78184603F0F6F95D
:100DA0000346002B14BF01230023DBB2184608378B
:100DB000BD4680BD80B582B000AF78600B46FB7049
:100DC000FB78184603F012FA0346002B14BF0123E8
:100DD0000023DBB218460837BD4680BD80B582B01F
:100DE00000AF786003F0A0FB034618460837BD4605
:100DF00080BD00BF80B582B000AF786003F004FC16
:100E0000034618460837BD4680BD00BF80B582B096
:100E100000AF786003F0AAFB034618460837BD46CA
:100E200080BD00BF80B582B000AF786003F04CFB9E
:100E300000BF0837BD4680BD80B582B000AF786086
:100E400003F00EFC00BF0837BD4680BD80B582B000
:100E500000AF786003F046FB034618460837BD46EE
:100E600080BD00BF80B582B000AF78600B46FB70DC
:100E7000FB78184603F0F8F9012318460837BD46F9
:100E800080BD00BF80B582B000AF786039607B68FC
:100E90001B681B683A68D2B21146786898470346C7
:100EA00018460837BD4680BD80B582B000AF786077
:100EB00039607B681B681B683A68D2B21146786853
:100EC0009847034618460837BD4680BD80B582B0B6
:100ED00000AF786039607B681B681B683A68D2B2E3
:100EE000114678689847034618460837BD4680BDC6
:100EF00080B582B000AF786039607B681B681B6882
:100F00003A68D2B2114678689847034618460837BF
:100F1000BD4680BD80B584B000AFF860B9607A602E
:100F20007968B86803F02CFA7B6818461037BD461C
:100F300080BD00BF80B584B000AF7860396038688C
:100F400012F0BCFBF860F968386803F019FAFB6826
:100F500018461037BD4680BD80B582B000AF7860BE
:100F60003960386803F080F9012318460837BD4618
:100F700080BD00BF80B400AF00BFBD465DF8047BFC
:100F8000704700BF80B582B000AF786039603B68C1
:100F90005A08064B13443A68B3FBF2F3184603F0C1
:100FA00093FC00BF0837BD4680BD00BF000E270779
:100FB00080B584B000AFF860B9607A60BB685A0849
:100FC000074B1344BA68B3FBF2F3184603F07CFCFA
:100FD000786803F0DFFC00BF1037BD4680BD00BF5E
:100FE000000E270780B582B000AF786003F058FD8F
:100FF00000BF0837BD4680BD80B582B000AF7860C5
:101000000B46FB70FB78184603F08CFD00BF0837D9
:10101000BD4680BD80B582B000AF78600B46FB70E6
:10102000FB78184603F0ECFD00BF0837BD4680BDD5
:1010300080B582B000AF78600B46FB701346BB7082
:10104000BA78FB781146184603F092FD00BF0837C6
:10105000BD4680BD80B582B000AF78600B46FB70A6
:10106000FB78184603F0D8FD0346002B14BF01237C
:101070000023DBB218460837BD4680BD80B582B07C
:1010800000AF78600B46FB70FB78184603F0F4FD68
:101090000346002B14BF01230023DBB21846083798
:1010A000BD4680BD80B582B000AF786003F0ECFE35
:1010B000034618460837BD4680BD00BF80B582B0E4
:1010C00000AF786003F04EFF034618460837BD4670
:1010D00080BD00BF80B582B000AF786003F0F6FE3F
:1010E000034618460837BD4680BD00BF80B582B0B4
:1010F00000AF786003F098FE00BF0837BD4680BDA2
:1011000080B582B000AF786003F058FF00BF0837A9
:10111000BD4680BD80B582B000AF786003F092FE1E
:10112000034618460837BD4680BD00BF80B582B073
:1011300000AF78600B46FB70FB78184603F0D0FDDB
:10114000012318460837BD4680BD00BF80B582B078
:1011500000AF786039607B681B681B683A68D2B260
:10116000114678689847034618460837BD4680BD43
:1011700080B582B000AF786039607B681B681B68FF
:101180003A68D2B21146786898470346184608373D
:10119000BD4680BD80B582B000AF786039607B68A5
:1011A0001B681B683A68D2B21146786898470346B4
:1011B00018460837BD4680BD80B582B000AF786064
:1011C00039607B681B681B683A68D2B21146786840
:1011D0009847034618460837BD4680BD80B584B0A1
:1011E00000AFF860B9607A607968B86803F004FE0F
:1011F0007B6818461037BD4680BD00BF80B584B0FF
:1012000000AF78603960386812F058FAF860F96811
:10121000386803F0F1FDFB6818461037BD4680BD05
:1012200080B582B000AF78603960386803F058FD4F
:10123000012318460837BD4680BD00BF80B400AF0B
:1012400000BFBD465DF8047B704700BF80B582B02B
:1012500000AF786039603B685A08064B13443A681F
:10126000B3FBF2F3184603F097FF00BF0837BD4603
:1012700080BD00BF000E270780B584B000AFF860C6
:10128000B9607A60BB685A08074B1344BA68B3FB6D
:10129000F2F3184603F080FF786804F005F800BF09
:1012A0001037BD4680BD00BF000E270780B582B055
:1012B00000AF786004F07EF800BF0837BD4680BDFF
:1012C00080B582B000AF78600B46FB70FB781846A3
:1012D00004F0D4F800BF0837BD4680BD80B582B0A9
:1012E00000AF78600B46FB70FB78184604F046F9B7
:1012F00000BF0837BD4680BD80B582B000AF7860C2
:101300000B46FB701346BB70BA78FB781146184643
:1013100004F0DAF800BF0837BD4680BD80B582B062
:1013200000AF78600B46FB70FB78184604F068F954
:101330000346002B14BF01230023DBB218460837F5
:10134000BD4680BD80B582B000AF78600B46FB70B3
:10135000FB78184604F084F90346002B14BF0123E0
:101360000023DBB218460837BD4680BD80B582B089
:1013700000AF786004F054FA034618460837BD46BB
:1013800080BD00BF80B582B000AF786004F0B6FACF
:10139000034618460837BD4680BD00BF80B582B001
:1013A00000AF786004F05EFA034618460837BD4681
:1013B00080BD00BF80B582B000AF786004F000FA55
:1013C00000BF0837BD4680BD80B582B000AF7860F1
:1013D00004F0C0FA00BF0837BD4680BD80B582B0BA
:1013E00000AF786004F0FAF9034618460837BD46A6
:1013F00080BD00BF80B582B000AF78600B46FB7047
:10140000FB78184604F038F9012318460837BD4622
:1014100080BD00BF80B582B000AF786039607B6866
:101420001B681B683A68D2B2114678689847034631
:1014300018460837BD4680BD80B582B000AF7860E1
:1014400039607B681B681B683A68D2B211467868BD
:101450009847034618460837BD4680BD80B582B020
:1014600000AF786039607B681B681B683A68D2B24D
:10147000114678689847034618460837BD4680BD30
:1014800080B582B000AF786039607B681B681B68EC
:101490003A68D2B21146786898470346184608372A
:1014A000BD4680BD80B584B000AFF860B9607A6099
:1014B0007968B86804F06CF97B6818461037BD4647
:1014C00080BD00BF80B584B000AF786039603868F7
:1014D00012F0F4F8F860F968386804F059F9FB681C
:1014E00018461037BD4680BD80B582B000AF786029
:1014F0003960386804F0C0F8012318460837BD4643
:1015000080BD00BF80B400AF00BFBD465DF8047B66
:10151000704700BF80B582B000AF786039603B682B
:101520005A08064B13443A68B3FBF2F3184604F02A
:10153000FFFA00BF0837BD4680BD00BF000E270779
:1015400080B584B000AFF860B9607A60BB685A08B3
:10155000074B1344BA68B3FBF2F3184604F0E8FAF9
:10156000786804F04BFB00BF1037BD4680BD00BF5C
:10157000000E270780B582B000AF786004F0C4FB8E
:1015800000BF0837BD4680BD80B582B000AF78602F
:101590000B46FB70FB78184604F0F8FB00BF0837D9
:1015A000BD4680BD80B582B000AF78600B46FB7051
:1015B000FB78184604F058FC00BF0837BD4680BDD4
:1015C00080B582B000AF78600B46FB701346BB70ED
:1015D000BA78FB781146184604F0FEFB00BF0837C6
:1015E000BD4680BD80B582B000AF78600B46FB7011
:1015F000FB78184604F044FC0346002B14BF01237B
:101600000023DBB218460837BD4680BD80B582B0E6
:1016100000AF78600B46FB70FB78184604F060FC66
:101620000346002B14BF01230023DBB21846083702
:10163000BD4680BD80B582B000AF786004F058FD33
:10164000034618460837BD4680BD00BF80B582B04E
:1016500000AF786004F0BAFD034618460837BD466F
:1016600080BD00BF80B582B000AF786004F062FD3D
:10167000034618460837BD4680BD00BF80B582B01E
:1016800000AF786004F004FD00BF0837BD4680BDA0
:1016900080B582B000AF786004F0C4FD00BF0837A9
:1016A000BD4680BD80B582B000AF786004F0FEFC1E
:1016B000034618460837BD4680BD00BF80B582B0DE
:1016C00000AF78600B46FB70FB78184604F03CFCDA
:1016D000012318460837BD4680BD00BF80B582B0E3
:1016E00000AF786039607B681B681B683A68D2B2CB
:1016F000114678689847034618460837BD4680BDAE
:1017000080B582B000AF786039607B681B681B6869
:101710003A68D2B2114678689847034618460837A7
:10172000BD4680BD80B582B000AF786039607B680F
:101730001B681B683A68D2B211467868984703461E
:1017400018460837BD4680BD80B582B000AF7860CE
:1017500039607B681B681B683A68D2B211467868AA
:101760009847034618460837BD4680BD80B584B00B
:1017700000AFF860B9607A607968B86804F070FC0E
:101780007B6818461037BD4680BD00BF80B584B069
:1017900000AF78603960386811F090FFF860F96840
:1017A000386804F05DFCFB6818461037BD4680BD04
:1017B00080B582B000AF78603960386804F0C4FB4F
:1017C000012318460837BD4680BD00BF80B400AF76
:1017D00000BFBD465DF8047B704700BF80B582B096
:1017E00000AF786039603B685A08064B13443A688A
:1017F000B3FBF2F3184604F003FE00BF0837BD4602
:1018000080BD00BF000E270780B584B000AFF86030
:10181000B9607A60BB685A08074B1344BA68B3FBD7
:10182000F2F3184604F0ECFD786804F04FFE00BFB8
:101830001037BD4680BD00BF000E270780B582B0BF
:1018400000AF786004F0C8FE00BF0837BD4680BD19
:1018500080B582B000AF78600B46FB70FB7818460D
:1018600004F0FCFE00BF0837BD4680BD80B582B0E5
:1018700000AF78600B46FB70FB78184604F05CFF05
:1018800000BF0837BD4680BD80B582B000AF78602C
:101890000B46FB701346BB70BA78FB7811461846AE
:1018A00004F002FF00BF0837BD4680BD80B582B09E
:1018B00000AF78600B46FB70FB78184604F048FFD9
:1018C0000346002B14BF01230023DBB21846083760
:1018D000BD4680BD80B582B000AF78600B46FB701E
:1018E000FB78184604F064FF0346002B14BF012365
:1018F0000023DBB218460837BD4680BD80B582B0F4
:1019000000AF786005F05CF8034618460837BD461E
:1019100080BD00BF80B582B000AF786005F0BEF832
:10192000034618460837BD4680BD00BF80B582B06B
:1019300000AF786005F066F8034618460837BD46E4
:1019400080BD00BF80B582B000AF786005F008F8B8
:1019500000BF0837BD4680BD80B582B000AF78605B
:1019600005F0C8F800BF0837BD4680BD80B582B01D
:1019700000AF786005F002F8034618460837BD4608
:1019800080BD00BF80B582B000AF78600B46FB70B1
:10199000FB78184604F040FF012318460837BD467F
:1019A00080BD00BF80B582B000AF786039607B68D1
:1019B0001B681B683A68D2B211467868984703469C
:1019C00018460837BD4680BD80B582B000AF78604C
:1019D00039607B681B681B683A68D2B21146786828
:1019E0009847034618460837BD4680BD80B582B08B
:1019F00000AF786039607B681B681B683A68D2B2B8
:101A0000114678689847034618460837BD4680BD9A
:101A100080B582B000AF786039607B681B681B6856
:101A20003A68D2B211467868984703461846083794
:101A3000BD4680BD80B584B000AFF860B9607A6003
:101A40007968B86804F074FF7B6818461037BD46A3
:101A500080BD00BF80B584B000AF78603960386861
:101A600011F02CFEF860F968386804F061FFFB683B
:101A700018461037BD4680BD80B582B000AF786093
:101A80003960386804F0C8FE012318460837BD469F
:101A900080BD00BF80B400AF00BFBD465DF8047BD1
:101AA000704700BF80B584B000AFF8600B467A6025
:101AB000FB72F97A7B68DAB20023F86800F092F9D9
:101AC000034618461037BD4680BD00BF80B483B0C2
:101AD00000AF7860044A7B681A607B6818460C3750
:101AE000BD465DF8047B70476C55010080B582B03F
:101AF00000AF786039607B681846FFF7E7FF054A5A
:101B00007B681A607B683A685A607B6818460837B9
:101B1000BD4680BD6055010080B584B000AF7860DF
:101B200039600023FB607A68FB68134404331B7838
:101B30000A2219463868FFF7B5FFFB680133FB60DE
:101B4000FB68032BCCBF01230023DBB2002B01D0A9
:101B5000042306E03B681B681B682E213868984701
:101B6000E1E718461037BD4680BD00BF80B582B0A2
:101B700000AF786039607B68012B08D13B684FF675
:101B8000FF72934203D100210348FFF7AFFF00BF6C
:101B90000837BD4680BD00BF1412FF1F80B500AFDF
:101BA0004FF6FF710120FFF7E1FF80BD80B485B0E3
:101BB00000AF78607B681B68002B20D07B681B68B7
:101BC0001A46124B13441B11FB60FB6830335B1148
:101BD0009A000F4B1344FA68303202F01F020121C1
:101BE00001FA02F21A600B4AFB680B4942F8231013
:101BF0007B681B6800229A607B6800221A6000BF25
:101C00001437BD465DF8047B704700BF008FFCBFF2
:101C100080E100E05C07FF1F8D1C000080B500AF75
:101C2000034B01221A60034B1B68984700BF80BD1D
:101C30000C7103405C07FF1F80B500AF034B01220E
:101C40001A60034B5B68984700BF80BD1C7103405E
:101C50005C07FF1F80B500AF034B01221A60034BE6
:101C60009B68984700BF80BD2C7103405C07FF1F35
:101C700080B500AF034B01221A60034BDB68984725
:101C800000BF80BD3C7103405C07FF1F80B400AF04
:101C900000BFBD465DF8047B704700BF90B583B0C0
:101CA00000AF786039607B681B6804331C68386853
:101CB00011F004FD03461A4639687868A0470346C8
:101CC00018460C37BD4690BD80B483B000AF786035
:101CD000002318460C37BD465DF8047B704700BFF3
:101CE00080B483B000AF786000BF0C37BD465DF8AC
:101CF000047B704780B582B000AF78603960396886
:101D00007868FFF7CBFF034618460837BD4680BD0D
:101D100080B586B000AFF860B9607A6000237B615F
:101D20007B685A1E7A60002B14BF01230023DBB2AC
:101D3000002B0ED0FB681B681A68BB68591CB96081
:101D40001B781946F868904702467B6913447B610B
:101D5000E6E77B6918461837BD4680BD80B584B07C
:101D600000AF7860094A07F10C0312881A807B687B
:101D70001B6804331B6807F10C010222786898473E
:101D8000034618461037BD4680BD00BF70550100A0
:101D900080B584B000AFF860B9607A60FB681B68FA
:101DA00004331B68F8687A68B96898477B681846F6
:101DB0001037BD4680BD00BF0EB480B585B000AF02
:101DC000786007F12003FB607B68FA68F9691846C0
:101DD00011F05EFD034618461437BD46BDE880404D
:101DE00003B0704780B58EB000AFF860B96011469F
:101DF0001A460B46FB711346BB71FB79002B09D1C8
:101E0000FB681B681B68BA68D2B21146F86898472D
:101E1000034663E0FB79012B01D10A23FB71BB6808
:101E2000002B0BD1212307F138021344302203F891
:101E3000242C2223013B87F837302FE02223013B5B
:101E400087F83730FA79BB68B3FBF2F102FB01F295
:101E50009B1A87F8363097F8372097F83630092BD9
:101E600004D897F836303033DBB203E097F83630D9
:101E70003733DBB207F138010A4402F8243CFB791E
:101E8000BA68B2FBF3F3BB60BB68002B05D097F8D0
:101E90003730013B87F83730D4E700BFBB79002BE0
:101EA0000CD097F83730013B87F8373097F8373048
:101EB00007F1380213442D2203F8242CFB681B6819
:101EC00004331B6897F8372007F11401114497F881
:101ED0003720C2F12202F86898470346184638377F
:101EE000BD4680BD80B483B000AF78607B680022BF
:101EF0001A607B6880221A717B6818460C37BD46D1
:101F00005DF8047B704700BF80B582B000AF786099
:101F10007868FFF74BFE7B6818460837BD4680BDE2
:101F200080B582B000AF786039607B68012B0CD13E
:101F30003B684FF6FF72934207D10648FFF7D2FF86
:101F4000054A064903480DF0A1F900BF0837BD4610
:101F500080BD00BF1C12FF1FF806FF1F091F0000F5
:101F600080B500AF4FF6FF710120FFF7D9FF80BDAC
:101F700080B483B000AF484B60221A70474BE12217
:101F80001A70474B1B78082B0CD1464B21221A6044
:101F9000454B13221A60454B21221A60444B1322F1
:101FA0001A602DE03E4B1B780A2B0CD13D4B392299
:101FB0001A603D4B13221A603C4B39221A603C4B8D
:101FC00013221A601CE0364B1B780C2B0CD1354BBE
:101FD00035221A60344B12221A60344B35221A60B3
:101FE000334B12221A600BE02E4B5D221A602E4BEF
:101FF00012221A602D4B5D221A602D4B12221A609C
:102000002C4B1B78002B06D02B4B01221A602B4B3C
:1020100001221A6005E0284B00221A60274B00229B
:102020001A60274B1B787B607B68012B06D8254BF9
:1020300080221A60244B80221A6023E07B68042BE4
:1020400006D8204B84221A601F4B84221A6019E0A4
:102050007B68082B06D81B4B85221A601A4B8522F9
:102060001A600FE07B68102B06D8164B86221A6088
:10207000154B86221A6005E0124B87221A60124B1C
:1020800087221A60114B01221A7000BF0C37BD461F
:102090005DF8047B704700BF0040074001400740E7
:1020A0006C07FF1F08B003400CB0034008B00B40A2
:1020B0000CB00B402612FF1F20B0034020B00B4095
:1020C0006D07FF1F24B0034024B00B402412FF1FF4
:1020D00080B483B000AF00BF5B4B1B6803F080038C
:1020E000002BF9D1594B1B6803F08003002BF3D16F
:1020F00072B6574B1B78002B00F09F80554B1B6826
:102100009AB2554B1B689BB213449AB2534B1B684F
:102110009BB213449AB2524B1B689BB213449AB2BF
:10212000504B1B689BB213449AB24F4B1B689BB237
:102130001344FB80FB885B089BB26FEA43436FEA62
:102140005343FB80494AFB881360494B1B689AB292
:10215000484B1B689BB213449AB2474B1B689BB217
:1021600013449AB2454B1B689BB213449AB2444B3A
:102170001B689BB213449AB2424B1B689BB2134438
:10218000FB80FB885B089BB26FEA43436FEA5343D3
:10219000FB803D4AFB8813603C4B1B689AB23C4B6A
:1021A0001B689BB213449AB23A4B1B689BB2134410
:1021B0009AB2394B1B689BB213449AB2374B1B68D7
:1021C0009BB213449AB2364B1B689BB21344FB80FC
:1021D000FB885B089BB26FEA43436FEA5343FB8083
:1021E000304AFB881360304B1B689AB22F4B1B6838
:1021F0009BB213449AB22E4B1B689BB213449AB203
:102200002C4B1B689BB213449AB22B4B1B689BB29E
:1022100013449AB2294B1B689BB21344FB80FB8882
:102220005B089BB26FEA43436FEA5343FB80244A47
:10223000FB881360064B00221A7062B600BF0C3791
:10224000BD465DF8047B704724B0034024B00B40CA
:102250002412FF1F38B003403CB0034040B003409D
:1022600044B0034048B003404CB003402CB003409E
:1022700058B003405CB0034060B0034064B003401A
:1022800068B003406CB0034030B0034038B00B403E
:102290003CB00B4040B00B4044B00B4048B00B404A
:1022A0004CB00B402CB00B4058B00B405CB00B4016
:1022B00060B00B4064B00B4068B00B406CB00B409A
:1022C00030B00B4080B584B000AF0346FB71FB79A2
:1022D000472B01D9002377E0FB793D4AD35CFB73A0
:1022E000FB7BFF2B01D100236EE03A4B1B78002BC8
:1022F00001D0FFF7EDFE97F90F30002B27DB72B608
:10230000354AFB7B1360354B01221A7062B672B6F8
:10231000314B1B6803F08003002B0ED0304B1B6841
:10232000BB602E4B00221A7062B62E4B1B781A46E9
:10233000BB681341BB60BB6846E0284B1B78DBB22F
:10234000002B00D1DCE762B605F082FFDFE700BFBB
:1023500072B6FB7B03F04003002B06D0224A224BCF
:102360001B6823F01003136005E01F4A1E4B1B6817
:1023700043F0100313601D4AFB7B03F03F0313601F
:102380001B4B01221A7062B672B6184B1B6803F021
:102390008003002B0ED0174B1B68BB60144B002230
:1023A0001A7062B60F4B1B781A46BB681341BB60AC
:1023B000BB6809E00E4B1B78DBB2002B00D1C8E7ED
:1023C00062B605F045FFDFE718461037BD4680BD11
:1023D000985501002412FF1F00B003402712FF1F71
:1023E00010B003402512FF1F0CB00B4000B00B4093
:1023F0002812FF1F10B00B4090B587B000AF00232C
:102400007B61274B3C46186859689A68DB680FC4A3
:10241000244B1B78DBB203F00203002B34D0224B99
:102420001B78DBB203F07003FB74FB7C002B02D043
:102430001D4AFB7C13701D4B80221A701C4B00221E
:102440001A701C4B12221A701B4B05221A7072B69E
:102450003B4643F001031448984762B6124B1B7881
:10246000BB74BB7C03F07003002B0DD00E4ABB7C09
:1024700003F07003DBB213700FE07B6901337B6103
:102480007B690E4A934207D8064B1B78DBB203F0F8
:102490000103002BF1D000E000BF1C37BD4690BD0A
:1024A000E055010001000240000002400700024028
:1024B000040002400B0002400A000240400D0300ED
:1024C00080B584B000AF78607B68FB60FB68B3F5D3
:1024D000805F01D300230DE0084B1B78DBB203F0D3
:1024E0000103002B01D1FFF787FFFB6803F1A05325
:1024F0001B78DBB218461037BD4680BD0100024094
:1025000080B400AF00BF064B1B78DBB203F00103C1
:10251000002BF8D000BFBD465DF8047B704700BFBC
:102520000100024080B584B000AF78600B46FB70BC
:102530007B68FB60FB68B3F5805F24D2144B1B788B
:10254000DBB203F00103002B01D1FFF755FFFB685D
:1025500003F1A0531B78DBB2FA789A4214D00D4BEA
:102560001B78DBB203F07003FB72FB7A002B02D006
:10257000084AFB7A1370FB6803F1A053FA781A70CB
:10258000FFF7BEFF00E000BF1037BD4680BD00BFB3
:10259000010002400000024080B58AB000AFF86040
:1025A000B9607A60BB687B62FB683B627B6AB3F5AB
:1025B000805F80F0CC80684B1B78DBB203F00103B6
:1025C000002B01D1FFF718FF7B68B3F5805F02D3C2
:1025D0004FF480537B607A6A7B681344B3F5805F65
:1025E000C0F0B0807B6AC3F580537B60AAE07B6A51
:1025F00003F00303FB61FB69002B43D17B68032BD2
:1026000040D93B6A5A1C3A621B78BB613B6A5A1C30
:102610003A621B781B021A46BB691343BB613B6AD3
:102620005A1C3A621B781B041A46BB691343BB61F0
:102630003B6A5A1C3A621B781B061A46BB69134355
:10264000BB617B6A03F1A0531A68BB699A4212D03E
:10265000424B1B78DBB203F07003FB75FB7D002B54
:1026600002D03E4AFB7D13707B6A03F1A053BA6926
:102670001A60FFF745FF7B6A04337B627B68043B8B
:102680007B605FE0FB69002B02D0FB69022B33D13A
:102690007B68012B30D93B6A5A1C3A621B78BB829B
:1026A0003B6A5A1C3A621B781B021AB2B7F9143003
:1026B00013431BB2BB827B6A03F1A0531B88BA8A07
:1026C0009A4212D0254B1B78DBB203F07003FB74E7
:1026D000FB7C002B02D0214AFB7C13707B6A03F148
:1026E000A053BA8A1A80FFF70BFF7B6A02337B6222
:1026F0007B68023B7B6025E03B6A5A1C3A621B7890
:10270000BB747B6A03F1A0531B78DBB2BA7C9A429C
:1027100012D0124B1B78DBB203F070037B747B7C0E
:10272000002B02D00D4A7B7C13707B6A03F1A0530F
:10273000BA7C1A70FFF7E4FE7B6A01337B627B6828
:10274000013B7B607B68002B7FF451AF00E000BF52
:102750002837BD4680BD00BF010002400000024096
:10276000844641EA000313F003036DD1403A41D39C
:1027700051F8043B40F8043B51F8043B40F8043B5B
:1027800051F8043B40F8043B51F8043B40F8043B4B
:1027900051F8043B40F8043B51F8043B40F8043B3B
:1027A00051F8043B40F8043B51F8043B40F8043B2B
:1027B00051F8043B40F8043B51F8043B40F8043B1B
:1027C00051F8043B40F8043B51F8043B40F8043B0B
:1027D00051F8043B40F8043B51F8043B40F8043BFB
:1027E00051F8043B40F8043B51F8043B40F8043BEB
:1027F000403ABDD2303211D351F8043B40F8043B8B
:1028000051F8043B40F8043B51F8043B40F8043BCA
:1028100051F8043B40F8043B103AEDD20C3205D39A
:1028200051F8043B40F8043B043AF9D2043208D092
:10283000D2071CBF11F8013B00F8013B01D30B8804
:1028400003806046704700BF082A13D38B078DD0E2
:1028500010F003038AD0C3F10403D21ADB071CBFB4
:1028600011F8013B00F8013B80D331F8023B20F81E
:10287000023B7BE7043AD9D3013A11F8013B00F857
:10288000013BF9D20B7803704B7843708B788370DF
:102890006046704780B500AF104B1B6803F480237F
:1028A000002B01D004F044FF0C4B1B6803F4806341
:1028B000002B01D001F036F9084B1B6803F40063CC
:1028C000002B01D001F004FF044B1B6803F480537C
:1028D000002BE1D002F08CFBDEE700BF3480044027
:1028E00080B500AFFFF7D6FF00BF80BD80B400AF5A
:1028F000034B10221A8000BFBD465DF8047B704771
:102900000020054080B400AF00BFBD465DF8047BE9
:10291000704700BF584B4CF2205210B51A804DF64C
:1029200028121A8000BF00BFFFF7E0FF534B4FF0A3
:1029300030621A60524A9A60524ADA60524B4FF43F
:1029400070021A60514A136813F4807304D150491D
:102950000B604FF4A85313604E4B1A78100703D541
:102960001A7842F008021A704B4B4C492A221A700E
:102970004B4A4C4B8B4204D252F8040F43F8040BE1
:10298000F8E7494B494A0021934202D243F8041B1D
:10299000FAE7474A4748002350F8231042F823102B
:1029A0000133662BF8D1444B444A802103F8011BC4
:1029B0009342FBD1424B3E4A1A60424B8A221A7024
:1029C000A3F5805324225A70A0221A709A79910795
:1029D000FCD59A79D206FCD43B4A937903F00C03D8
:1029E000082B394BF9D103221A7146225A719A7970
:1029F0009406FCD534498A79334B5006FBD5334ACB
:102A00004FF0827111600921516020221A709A7969
:102A100002F00C020C2AFAD12D4B2E4A1A602E4BD2
:102A20002E4A1A6000225A60072243F8042C2C4ACE
:102A3000C3F80C2D62B600F08BF9154B1B68DA0752
:102A400005D5284800F068F9274B284A1A60284B1A
:102A50001B785B0609D5244C244B22689A4204D18A
:102A6000204800F059F90023236010F057F8FFF7D1
:102A700049FF0BF0BDFFFEE70E200540308004400B
:102A8000823F04000100002B88ED00E010D00340DD
:102A900014D0034002D0074000E00740D011FF1FD0
:102AA000BC630100F806FF1FD011FF1F2023FF1F8A
:102AB0000002FF1F0000000000E400E056E400E018
:102AC00008ED00E00050064000400640448004400D
:102AD00004800440C010050014E000E0BFD40100F1
:102AE00000002020000000001CE00340A5C3945A11
:102AF00000F0074080B584B000AF7860104B1B68D1
:102B0000FB607B68002B16D06B46BB607B68FA6865
:102B10001A44BB68A3F500539A4207D30FF0F8FF9D
:102B200002460C2313604FF0FF3305E07B68FA6820
:102B30001344034A1360FB6818461037BD4680BD36
:102B40007007FF1F80B485B000AFF860B9607A608D
:102B5000002318461437BD465DF8047B704700BF5C
:102B600080B483B000AF78604FF0FF3318460C3765
:102B7000BD465DF8047B704780B485B000AFF86057
:102B8000C7E900234FF0FF3318461437BD465DF800
:102B9000047B704780B400AFFEE700BF80B487B00D
:102BA00000AF4FF480737B61EFF313833B613B69AC
:102BB000002B02D04FF0FF3325E0EFF31083FB60D2
:102BC000FB68002B01D000231DE0EFF30583BB6001
:102BD000BB68002B0AD0BB680F2B02D800237B6197
:102BE00004E0BA680B4B13441B787B61EFF311834D
:102BF0007B607B68002B05D07A687B699A4201D2A2
:102C00007B687B617B6918461C37BD465DF8047B99
:102C1000704700BFF0E300E080B582B000AF78609D
:102C200078680FF0A5FF034618460837BD4680BDFB
:102C300080B582B000AF786078680FF099FF0346E6
:102C400018460837BD4680BD80B582B000AF7860B9
:102C500078680FF095FF00BF0837BD4680BD00BF04
:102C600080B489B000AFF860B9607A600023FB617E
:102C70007A68FB68B3FBF2F102FB01F29B1A7B61FD
:102C8000FB69BA681A447B69092B05D87B69DBB2FA
:102C90003033DBB25BB204E07B69DBB23733DBB2EB
:102CA0005BB213707B68FA68B2FBF3F3FB60FB68FE
:102CB000002B03D0FB690133FB61D9E700BFFB693F
:102CC0000133BA68134400221A700023BB6118E074
:102CD000BB69BA6813441B78FB74BB69BA681344B8
:102CE000FA69B9680A4492F900201A70FB69BA6857
:102CF0001344FA7C1A70BB690133BB61FB69013B69
:102D0000FB61BA69FB699A42E2DBBB68184624376B
:102D1000BD465DF8047B704780B483B000AF786037
:102D2000084B00221A60084B00221A60074A7B6891
:102D30001360044B10221A6000BF0C37BD465DF8CB
:102D4000047B704714D0034004D0034000D00340FC
:102D500080B500AF454B4FF000621A60434B4FF017
:102D600080521A60414B4FF000521A603F4B4FF0B7
:102D700080421A603D4B4FF000421A603C4B0022EB
:102D80001A603C4B4EF6FF721A603B4B28221A60C9
:102D90003A4B28221A603A4B28221A60394B2822D3
:102DA0001A60394B28221A60384B28221A60384B97
:102DB00028221A60374B28221A60374B28221A60C3
:102DC000364B28221A60364B28221A60354B2822AF
:102DD0001A60354B28221A60344B28221A60344B73
:102DE00028221A60334B28221A60334B09221A60BA
:102DF000324B00221A60324B4EF6FF721A60314B92
:102E000028221A60304B28221A60304B09221A609F
:102E10002F4B00221A602F4B4EF6FF721A602E4B7A
:102E200028221A602D4B28221A602D4B09221A6085
:102E30002C4B00221A602C4B4EF6FF721A60164B78
:102E400028221A60154B28221A60284B09221A6082
:102E5000FFF78EF8322000F02BF904F025FE4FF436
:102E6000AF7000F025F900BF80BD00BF04E100E0B5
:102E700004800340088003400C800340148003401A
:102E80001C800340248003402C8003403480034096
:102E90003C800340448003400C900B4014900B4056
:102EA0001C900B4024900B402C900B4034900B4016
:102EB0003C900B4044900B40008003400490034042
:102EC000089003400C90034014900340009003408E
:102ED00004800B4008800B400C800B4014800B409A
:102EE00000800B4004900B4008900B4000900B407A
:102EF00080B485B000AF03460A46FB711346BB7130
:102F0000FB793F2B34D8FB791C4A52F8333003F558
:102F100020731B78DBB2002B13D0BB79002B07D0BA
:102F2000FB79164A52F83330803301221A7020E0C0
:102F3000FB79124A52F8333003F5807301221A707C
:102F400017E0FB790D4ADB0013445B68FB60BB793B
:102F5000002B06D0FB681B6843F00302FB681A6075
:102F600007E0FB681B6823F00202FB681A6000E0C0
:102F700000BF1437BD465DF8047B7047F055010073
:102F800080B485B000AF03460A46FB711346BB719F
:102F9000FB793F2B4CD8FB79284ADB0013445B6854
:102FA000FB60BB79012B02D0BB79042B1CD1FB79D0
:102FB000224A52F8333003F5207301221A70FB685D
:102FC0004FF4A2721A60BB79042B06D1FB681B6810
:102FD00043F02002FB681A602BE0FB681B6823F0BB
:102FE0002002FB681A6024E0FB79144A52F833305F
:102FF00003F5207300221A70BB79002B04D1FB6803
:103000004FF480721A6014E0BB79022B04D1FB6884
:1030100040F203121A600CE0BB79032B04D1FB6869
:103020004FF481721A6004E0FB6800221A6000E02D
:1030300000BF1437BD465DF8047B7047F0550100B2
:1030400080B485B000AF72B6154B1B68BB60154BE2
:103050001B68FB60144B1B687B6062B67B6803F0E7
:103060008063002B05D0BB68322B02D9FB6801338B
:10307000FB60BB68C3F5EA33BF33BB60FB684FF44A
:103080007A7202FB03F2BB680849A1FB03139B0998
:10309000134418461437BD465DF8047B704700BFE3
:1030A00018E000E02C12FF1F04ED00E089888888FA
:1030B00080B584B000AF7860FFF7C2FFF8607B682E
:1030C000002B16D009E07B68013B7B607B68002BFE
:1030D0000ED0FB6803F57A73FB60FFF7B1FF024681
:1030E000FB68D31AB3F57A7FEDD205F0B1F8E9E7C2
:1030F00000BF1037BD4680BD80B483B000AF78609C
:103100003B4A3B4B1B6843F480631360394B0022FE
:103110001A70394B00221A70384B00221A70384B43
:1031200000221A70374B00221A70374B1B78152B70
:1031300008D01B2B0BD0002B0ED1344B40F2133296
:103140001A6009E0324B40F213321A6004E0314B4E
:1031500040F213321A6000BF2F4B1B78052B08D0AA
:103160001A2B0BD0012B0ED12C4B4FF451721A603D
:1031700009E02B4B4FF451721A6004E0294B4FF4D5
:1031800051721A6000BF7B681F2B01D820237B601F
:10319000254A7B685B0BDBB203F01F03DBB21370C5
:1031A000214A7B685B09DBB253701F4A7B68DBB244
:1031B00003F01F03DBB293721B4B04229A701A4B6D
:1031C0000222DA74184B04225A75174B88221A749B
:1031D000154B3C22DA70154B40221A70144B4FF0FD
:1031E00000421A6000BF0C37BD465DF8047B704793
:1031F00034800440C213FF1FC313FF1FC013FF1FFF
:10320000C113FF1FB413FF1FC413FF1F40A00440CE
:1032100018C004403C9004407407FF1F44A00440C1
:103220001CC004403890044000A006401FE400E0A9
:1032300000E100E080B485B000AF78603E4B9B7841
:10324000FB73FB7B23F01303DAB27B68DBB203F082
:103250000303DBB21343FB737B6803F00403002B0F
:1032600003D0FB7B43F01003FB73334AFB7B93706B
:103270007B6803F00F03042B07D12F4A2E4B9B7959
:10328000DBB243F04003DBB293712B4B5B79DBB2D3
:1032900023F01003FB737B6803F01003002B03D0B3
:1032A000FB7B43F01003FB73234AFB7B5371224BE0
:1032B0009B79DBB223F01003FB737B6803F02003E0
:1032C000002B03D0FB7B43F01003FB731A4AFB7BFC
:1032D0009371194B9B7ADBB203F01F03FB737B687E
:1032E00003F00803002B03D0FB7B43F02003FB73A8
:1032F000114AFB7B93727B68DBB223F07F03DAB267
:103300000E4B1A707B6803F48073002B0DD00A4BB0
:103310005B78BB73084A084B1B78DBB243F0200391
:10332000DBB21370044ABB7B537000BF1437BD4639
:103330005DF8047B704700BF00A006403012FF1FFD
:1033400080B500AF2A4B1B6803F48063002B4DD07F
:1033500001E004F07DFF274B1B78DBB2002BF8D196
:10336000254B4FF000421A60244B0022DA70244BA8
:103370001B78152B08D01B2B0BD0002B0ED1214B0B
:1033800040F203121A6009E01F4B40F203121A6068
:1033900004E01E4B40F203121A6000BF1C4B1B7866
:1033A00003F07F03052B08D01A2B0BD0012B0ED175
:1033B000184B40F203121A6009E0174B40F2031257
:1033C0001A6004E0154B40F203121A6000BF144B60
:1033D00000221A70134B00221A70134B1B68002B2B
:1033E00005D0114B1B6801221A7000E000BF80BDA0
:1033F00034800440B413FF1F80E100E000A00640C9
:10340000C413FF1F40A0044018C004403C90044077
:103410007407FF1F44A004401CC0044038900440BF
:10342000C213FF1FC313FF1FBC13FF1F80B582B061
:1034300000AF0346FB7100BF0C4B1B78DBB2002BC7
:10344000FAD1FB7901211846FFF79AFDFB7900219B
:103450001846FFF74DFDFB79054A52F83330054A0F
:10346000136000BF0837BD4680BD00BFB413FF1F07
:10347000F0550100B813FF1F80B485B000AF0346BC
:103480000A46FB711346BB71BB79002B03D0FB7955
:1034900063F07F03FB71274B1B78FA799A4242D085
:1034A000254B1B6803F48063002B38D0214B1B781D
:1034B00003F07F03052B07D01A2B09D0012B0BD16A
:1034C0001E4B00221A6007E01D4B00221A6003E029
:1034D0001C4B00221A6000BFBB79002B02D0602376
:1034E000FB6001E04423FB60FB7903F07F03052BC5
:1034F00009D01A2B0DD0012B11D1104AFB6843F4CF
:10350000407313600BE00E4AFB6843F44073136092
:1035100005E00C4AFB6843F44073136000BF054AA2
:10352000FB79137000E000BF1437BD465DF8047BE3
:10353000704700BF7407FF1F3480044044A004405C
:103540001CC004403890044080B483B000AF0346F0
:10355000FB711F4B1B78FA799A4233D01D4B1B68C5
:1035600003F48063002B29D0194B1B78152B07D04F
:103570001B2B09D0002B0BD1174B00221A6007E040
:10358000164B00221A6003E0154B00221A6000BFA0
:10359000FB79152B08D01B2B0BD0002B0ED10E4B1B
:1035A00040F213321A6009E00C4B40F213321A60F9
:1035B00004E00B4B40F213321A6000BF044AFB795F
:1035C000137000E000BF0C37BD465DF8047B704708
:1035D000C413FF1F3480044040A0044018C00440BE
:1035E0003C90044080B582B000AF0346FB71124BA3
:1035F0001B6803F48063002B01D1002317E0FB79E3
:103600003F2B10D8FB790D4A52F833300C4A136027
:10361000FB7901211846FFF7B3FC094B1B68002218
:103620001A70012303E0064B00221A60002318469B
:103630000837BD4680BD00BF34800440F05501000E
:10364000BC13FF1F80B483B000AF0346FB71184B5F
:103650001B6803F48063002B01D1002322E0FB7977
:10366000122B04D1134B40F202321A6011E0FB79A5
:10367000142B04D1104B40F202321A6009E00F4AB9
:103680000E4B5B7BDBB223F00103DBB253730023F1
:1036900008E00A4A094B5B7BDBB243F00103DBB273
:1036A0005373012318460C37BD465DF8047B704701
:1036B000348004400CA0044014C0044000A0064024
:1036C00080B586B000AF78603B4B1B6803F4806325
:1036D000002B6CD0394B1B68002B03D0374B1B6879
:1036E00001221A70364B1B78DBB27B617B69013398
:1036F0007B617B693F2B42D900237B613FE0FFF771
:103700004DFAF860FB68402B34DC2E4B1B79DBB2A2
:103710005BB2002B33DA2C4B1B78DBB23B613B698D
:1037200001333B613B693F2B01D900233B61274AB1
:103730003B6932F813309BB2BB60254B1B78002BE2
:103740000FD020491F4B9B79DBB223F04003DAB244
:10375000BB689B08DBB203F04003DBB21343DBB270
:103760008B71184BBA68D2B2DA713B69DAB2164B78
:103770001A7004E0FB68FF2B01DD04F069FD124BB9
:103780001B78DBB21A467B699A42B8D07B6899B243
:103790000E4A7B6922F813100E4B01221A707B69C6
:1037A000DAB2074B1A70074BBC22DA7000E000BF98
:1037B0001837BD4680BD00BF34800440B813FF1FDA
:1037C000C013FF1F00A00640C113FF1F3412FF1FCC
:1037D0003012FF1FB413FF1F80B588B000AF7860B0
:1037E00039607B68FB61FA693B6813443B61444B79
:1037F0001B6803F48063002B7DD0424B1B68002BB9
:1038000071D0404B1B6801221A706CE03E4B1B7854
:10381000DBB2BB61BB690133BB61BB693F2B01D923
:103820000023BB61394B1B78DBB21A46BB699A4255
:1038300049D1374BBC22DA70FFF7B0F9F860FB686A
:10384000402B34DC324B1B79DBB25BB2002B33DA1A
:103850002E4B1B78DBB27B617B6901337B617B691B
:103860003F2B01D900237B612A4A7B6932F8133050
:103870009BB2BB60284B1B78002B0FD02449244BF4
:103880009B79DBB223F04003DAB2BB689B08DBB262
:1038900003F04003DBB21343DBB28B711C4BBA68FD
:1038A000D2B2DA717B69DAB2184B1A7004E0FB68A5
:1038B000FF2B01DD04F0CCFC144B1B78DBB21A4665
:1038C000BB699A42B8D0FB695A1CFA611B7899B25D
:1038D000104ABB6922F81310104B01221A70BB6901
:1038E000DAB2094B1A70FA693B699A428ED3084BD7
:1038F000BC22DA7000E000BF2037BD4680BD00BFAB
:1039000034800440B813FF1FC013FF1FC113FF1FF3
:1039100000A006403412FF1F3012FF1FB413FF1F18
:1039200080B500AF01E004F093FC034B1B78DBB2E1
:10393000002BF8D100BF80BDB413FF1F80B483B04B
:1039400000AF0D4B1B78DBB27B600C4B1B78DBB2FE
:103950003B607A683B689A4204D33A687B68D31A22
:103960003F3303E03A687B68D31A013B18460C37B3
:10397000BD465DF8047B7047C013FF1FC113FF1FD6
:1039800080B483B000AF0D4B1B78DBB27B600C4B77
:103990001B78DBB23B607A683B689A4203D37A6853
:1039A0003B68D31A03E07A683B68D31A8033184621
:1039B0000C37BD465DF8047B704700BFC213FF1F84
:1039C000C313FF1F80B485B000AF204B1B78DBB260
:1039D0007B601F4B1B78DBB2FB607A68FB689A4206
:1039E00002D14FF0FF332BE0FB680133FB60FB6833
:1039F0007F2B01D90023FB60164AFB6832F8133095
:103A00009BB23B60FB68DAB2114B1A70124B1B6819
:103A1000002B14D07A68FB689A4204D37A68FB685A
:103A2000D31ABB6004E07A68FB68D31A8033BB60AA
:103A3000BB685A2B03DC084B1B6800221A703B68DA
:103A400018461437BD465DF8047B7047C213FF1F4C
:103A5000C313FF1FB412FF1FBC13FF1F80B483B03A
:103A600000AF114B1B78DBB23B60104B1B78DBB215
:103A70007B603A687B689A4202D14FF0FF330CE0DA
:103A80007B6801337B607B687F2B01D900237B60DF
:103A9000074A7B6832F813309BB218460C37BD4694
:103AA0005DF8047B704700BFC213FF1FC313FF1FE5
:103AB000B412FF1F80B400AF154B1B6803F4806382
:103AC000002B20D0134A134BDB78DBB223F03403F6
:103AD000DBB2D3700F4B40225A740E4A0D4BDB7889
:103AE000DBB243F03403DBB2D3700B4B1B78DAB29A
:103AF0000A4B1A700A4B1B68002B05D0084B1B6839
:103B000000221A7000E000BFBD465DF8047B7047DC
:103B10003480044000A00640C313FF1FC213FF1FE0
:103B2000BC13FF1F80B489B000AF704B1B79DBB2B0
:103B300003F03003002B63D072B66C4B9B7DFB739C
:103B4000FB7B002B07D1694BDB79FB71674B402274
:103B50005A7462B654E062B6654B1B78DBB2FB6107
:103B6000644B1B78DBB2BB61634B1B78002B0CD022
:103B70005E4B9B79DBB25BB2002B06DA5B4BDB79E9
:103B8000DBB243F480737B6103E0584BDB79DBB23B
:103B90007B61FB6901333B613B697F2B01D90023CA
:103BA0003B613A69BB699A4207D03B69FB617B691B
:103BB00099B2524AFB6922F81310FB7B013BFB735D
:103BC000FB7B002BD0D1FB69DAB2494B1A704C4B0E
:103BD0001B68002B14D0FA69BB699A4204D3FA69B6
:103BE000BB69D31ABB6004E0FA69BB69D31A80339E
:103BF000BB60BB68672B03DD414B1B6801221A7059
:103C00003A4BDB78FB7197F90730002B4EDA374BD4
:103C10001B79DBB25BB2002B48DA3A4B1B78DBB284
:103C2000FB61394B1B78DBB2BB61BA69FB699A4215
:103C30002ED0BB690133BB61BB693F2B01D9002387
:103C4000BB612A4B1B79FB73304ABB6932F81330D6
:103C50009BB27B61284B1B78002B0FD02349234B51
:103C60009B79DBB223F04003DAB27B699B08DBB2BD
:103C700003F04003DBB21343DBB28B711B4B7A6959
:103C8000D2B2DA71194B1B7DDBB2072BCDD900E024
:103C900000BFBB69DAB21C4B1A70144B1B79DBB244
:103CA0005BB2002B02DA114B7C22DA70FB7903F055
:103CB0004003002B14D00D4B1B79DBB203F0400303
:103CC000002B0DD0124B00221A70124B1B68002BD8
:103CD00003D0104B1B6800221A70044B3C22DA7090
:103CE00000BF2437BD465DF8047B704700A0064046
:103CF000C213FF1FC313FF1F3012FF1FB412FF1F99
:103D0000BC13FF1FC013FF1FC113FF1F3412FF1F7F
:103D1000B413FF1FB813FF1F80B483B000AF7860E7
:103D2000354A354B1B6843F400631360334B002264
:103D30001A80334B00221A80324B00221A80324BF9
:103D400000221A80314B00221A70314B1B78092B4C
:103D500002D03B2B05D009E02E4B40F213321A6003
:103D600004E02D4B40F213321A6000BF2B4B1B783E
:103D70000A2B02D03A2B05D009E0294B4FF451729F
:103D80001A6004E0274B4FF451721A6000BF7B6841
:103D90001F2B01D820237B60234A7B685B0BDBB29F
:103DA00003F01F03DBB213701F4A7B685B09DBB2B1
:103DB00053701D4A7B68DBB203F01F03DBB29372C2
:103DC000194B04229A70184B0222DA74164B042203
:103DD0005A75154B88221A74134B3422DA70134B20
:103DE00040221A70124B02221A6000BF0C37BD46E7
:103DF0005DF8047B704700BF34800440D817FF1F74
:103E0000DA17FF1FD417FF1FD617FF1FC817FF1F92
:103E10007507FF1F0CB0044004D004407607FF1F55
:103E200010B0044000D0044000B0064021E400E09F
:103E300004E100E080B485B000AF78603E4B9B7831
:103E4000FB73FB7B23F01303DAB27B68DBB203F076
:103E50000303DBB21343FB737B6803F00403002B03
:103E600003D0FB7B43F01003FB73334AFB7B93705F
:103E70007B6803F00F03042B07D12F4A2E4B9B794D
:103E8000DBB243F04003DBB293712B4B5B79DBB2C7
:103E900023F01003FB737B6803F01003002B03D0A7
:103EA000FB7B43F01003FB73234AFB7B5371224BD4
:103EB0009B79DBB223F01003FB737B6803F02003D4
:103EC000002B03D0FB7B43F01003FB731A4AFB7BF0
:103ED0009371194B9B7ADBB203F01F03FB737B6872
:103EE00003F00803002B03D0FB7B43F02003FB739C
:103EF000114AFB7B93727B68DBB223F07F03DAB25B
:103F00000E4B1A707B6803F48073002B0DD00A4BA4
:103F10005B78BB73084A084B1B78DBB243F0200385
:103F2000DBB21370044ABB7B537000BF1437BD462D
:103F30005DF8047B704700BF00B00640C513FF1F4B
:103F400080B500AF234B1B6803F40063002B3ED009
:103F500001E004F07DF9204B1B78DBB2002BF8D197
:103F60001E4B02221A601E4B0022DA701D4B1B787A
:103F7000092B02D03B2B05D008E01B4B40F203126B
:103F80001A6003E0194B00221A6000BF184B1B781F
:103F900003F07F030A2B02D03A2B05D008E0154B23
:103FA00040F203121A6003E0134B00221A6000BFB4
:103FB000124B00221A80124B00221A80114B1B68F0
:103FC000002B05D00F4B1B6801221A7000E000BFC8
:103FD00080BD00BF34800440C817FF1F84E100E0AB
:103FE00000B006407507FF1F0CB0044004D0044029
:103FF0007607FF1F10B0044000D00440D817FF1F01
:10400000DA17FF1FD017FF1F80B582B000AF03463D
:10401000FB7100BF0C4B1B78DBB2002BFAD1FB7994
:1040200001211846FEF7ACFFFB7900211846FEF788
:104030005FFFFB79054A52F83330054A136000BF31
:104040000837BD4680BD00BFC817FF1FF0550100EF
:10405000CC17FF1F80B485B000AF03460A46FB7142
:104060001346BB71BB79002B03D0FB7963F07F0350
:10407000FB71214B1B78FA799A4236D01F4B1B6893
:1040800003F40063002B2CD01B4B1B7803F07F0341
:104090000A2B02D03A2B04D007E0194B00221A60F9
:1040A00003E0184B00221A6000BFBB79002B02D03E
:1040B0006023FB6001E04423FB60FB7903F07F0396
:1040C0000A2B02D03A2B06D00BE00D4AFB6843F4D2
:1040D0004073136005E00B4AFB6843F440731360C0
:1040E00000BF054AFB79137000E000BF1437BD46DE
:1040F0005DF8047B704700BF7607FF1F34800440E3
:1041000010B0044000D0044080B483B000AF034638
:10411000FB711A4B1B78FA799A4228D0184B1B680E
:1041200003F40063002B1ED0144B1B78092B02D024
:104130003B2B04D007E0134B00221A6003E0124B24
:1041400000221A6000BFFB79092B02D03B2B05D05F
:1041500009E00C4B40F213321A6004E00A4B40F2C3
:1041600013321A6000BF054AFB79137000E000BFEC
:104170000C37BD465DF8047B704700BF7507FF1F15
:10418000348004400CB0044004D0044080B582B0B8
:1041900000AF0346FB71124B1B6803F40063002B56
:1041A00001D1002317E0FB793F2B10D8FB790D4A92
:1041B00052F833300C4A1360FB7901211846FEF7A0
:1041C000DFFE094B1B6800221A70012303E0064B37
:1041D00000221A60002318460837BD4680BD00BF84
:1041E00034800440F0550100D017FF1F80B483B025
:1041F00000AF0346FB71184B1B6803F40063002BF0
:1042000001D1002322E0FB79172B04D1134B40F29C
:1042100002321A6011E0FB793C2B04D1104B40F2C2
:1042200002321A6009E00F4A0E4B5B7BDBB223F0CF
:104230000103DBB25373002308E00A4A094B5B7B9E
:10424000DBB243F00103DBB25373012318460C3792
:10425000BD465DF8047B70473480044008B00440DC
:1042600008D0044000B0064080B586B000AF78604A
:104270003B4B1B6803F40063002B6CD0394B1B686D
:10428000002B03D0374B1B6801221A70364B1B885A
:104290009BB27B617B6901337B617B69FF2B42D9D8
:1042A00000237B613FE0FEF779FCF860FB68402B60
:1042B00034DC2E4B1B79DBB25BB2002B33DA2C4B98
:1042C0001B889BB23B613B6901333B613B69FF2B20
:1042D00001D900233B61274A3B6932F813309BB276
:1042E000BB60254B1B78002B0FD020491F4B9B79BF
:1042F000DBB223F04003DAB2BB689B08DBB203F009
:104300004003DBB21343DBB28B71184BBA68D2B2F5
:10431000DA713B699AB2164B1A8004E0FB68FF2BF6
:1043200001DD03F095FF124B1B889BB21A467B6997
:104330009A42B8D07B6899B20E4A7B6922F8131072
:104340000E4B01221A707B699AB2074B1A80074BF9
:104350008822DA7000E000BF1837BD4680BD00BF7C
:1043600034800440CC17FF1FD417FF1F00B0064055
:10437000D617FF1FC813FF1FC513FF1FC817FF1F46
:1043800080B588B000AF786039607B68FB61FA69FE
:104390003B6813443B61444B1B6803F40063002BF0
:1043A0007DD0424B1B68002B71D0404B1B68012213
:1043B0001A706CE03E4B1B889BB2BB61BB6901333A
:1043C000BB61BB69FF2B01D90023BB61394B1B8843
:1043D0009BB21A46BB699A4249D1374B8822DA70A0
:1043E000FEF7DCFBF860FB68402B34DC324B1B79BA
:1043F000DBB25BB2002B33DA2E4B1B889BB27B61A6
:104400007B6901337B617B69FF2B01D900237B61D1
:104410002A4A7B6932F813309BB2BB60284B1B7869
:10442000002B0FD02449244B9B79DBB223F04003AF
:10443000DAB2BB689B08DBB203F04003DBB2134384
:10444000DBB28B711C4BBA68D2B2DA717B699AB25B
:10445000184B1A8004E0FB68FF2B01DD03F0F8FE27
:10446000144B1B889BB21A46BB699A42B8D0FB69B1
:104470005A1CFA611B7899B2104ABB6922F81310D2
:10448000104B01221A70BB699AB2094B1A80FA6963
:104490003B699A428ED3084B8822DA7000E000BF55
:1044A0002037BD4680BD00BF34800440CC17FF1FBD
:1044B000D417FF1FD617FF1F00B00640C813FF1FF9
:1044C000C513FF1FC817FF1F80B500AF01E003F041
:1044D000BFFE034B1B78DBB2002BF8D100BF80BDC1
:1044E000C817FF1F80B483B000AF0D4B1B889BB271
:1044F0007B600C4B1B889BB23B607A683B689A429E
:1045000004D33A687B68D31AFF3303E03A687B68C8
:10451000D31A013B18460C37BD465DF8047B704743
:10452000D417FF1FD617FF1F80B483B000AF0D4B09
:104530001B889BB27B600C4B1B889BB23B607A68EC
:104540003B689A4203D37A683B68D31A04E07A68DE
:104550003B68D31A03F5807318460C37BD465DF8E7
:10456000047B7047D817FF1FDA17FF1F80B485B090
:1045700000AF214B1B889BB27B60204B1B889BB2FA
:10458000FB607A68FB689A4202D14FF0FF332CE05F
:10459000FB680133FB60FB68FF2B01D90023FB6044
:1045A000174AFB6832F813309BB23B60FB689AB243
:1045B000124B1A80134B1B68002B15D07A68FB68CE
:1045C0009A4204D37A68FB68D31ABB6005E07A6824
:1045D000FB68D31A03F58073BB60BB68DA2B03DC7E
:1045E000084B1B6800221A703B6818461437BD46FA
:1045F0005DF8047B704700BFD817FF1FDA17FF1F55
:10460000C815FF1FD017FF1F80B483B000AF114B38
:104610001B889BB23B60104B1B889BB27B603A6847
:104620007B689A4202D14FF0FF330CE07B68013384
:104630007B607B68FF2B01D900237B60074A7B6886
:1046400032F813309BB218460C37BD465DF8047B38
:10465000704700BFD817FF1FDA17FF1FC815FF1FCD
:1046600080B400AF154B1B6803F40063002B20D00F
:10467000134A134BDB78DBB223F03403DBB2D37085
:104680000F4B40225A740E4A0D4BDB78DBB243F0DD
:104690003403DBB2D3700B4B1B889AB20A4B1A80DF
:1046A0000A4B1B68002B05D0084B1B6800221A70B0
:1046B00000E000BFBD465DF8047B704734800440D5
:1046C00000B00640DA17FF1FD817FF1FD017FF1FD3
:1046D00080B489B000AF714B1B79DBB203F03003BB
:1046E000002B64D072B66D4B9B7DFB73FB7B002B64
:1046F00007D16A4BDB79FB71684B40225A7462B672
:1047000055E062B6664B1B889BB2FB61654B1B880C
:104710009BB2BB61644B1B78002B0CD05F4B9B7929
:10472000DBB25BB2002B06DA5C4BDB79DBB243F425
:1047300080737B6103E0594BDB79DBB27B61FB6902
:1047400001333B613B69FF2B01D900233B613A698F
:10475000BB699A4207D03B69FB617B6999B2534AB6
:10476000FB6922F81310FB7B013BFB73FB7B002BE7
:10477000D0D1FB699AB24A4B1A804D4B1B68002B73
:1047800015D0FA69BB699A4204D3FA69BB69D31A96
:10479000BB6005E0FA69BB69D31A03F58073BB609F
:1047A000BB68E72B03DD424B1B6801221A703B4BB1
:1047B000DB78FB7197F90730002B4EDA374B1B790A
:1047C000DBB25BB2002B48DA3A4B1B889BB2FB6131
:1047D000394B1B889BB2BB61BA69FB699A422ED0E8
:1047E000BB690133BB61BB69FF2B01D90023BB61EE
:1047F0002A4B1B79FB73314ABB6932F813309BB2E9
:104800007B61294B1B78002B0FD02449234B9B79CC
:10481000DBB223F04003DAB27B699B08DBB203F022
:104820004003DBB21343DBB28B711C4B7A69D2B20B
:10483000DA711A4B1B7DDBB2072BCDD900E000BF2C
:10484000BB699AB21C4B1A80144B1B79DBB25BB26A
:10485000002B02DA114B4822DA70FB7903F0400397
:10486000002B14D00D4B1B79DBB203F04003002B5F
:104870000DD0134B00221A70124B1B68002B03D073
:10488000104B1B6800221A70044B3422DA7000BFF0
:104890002437BD465DF8047B704700BF00B006407A
:1048A000D817FF1FDA17FF1FC513FF1FC815FF1FFB
:1048B000D017FF1FD417FF1FD617FF1FC813FF1FE6
:1048C000C817FF1FCC17FF1F80B483B000AF7860FC
:1048D000254A254B1B6843F480531360234B002269
:1048E0001A70234B00221A70224B00221A70224B9E
:1048F00000221A70214B00221A70214B40F2133211
:104900001A60204B4FF451721A607B681F2B01D83C
:1049100020237B601C4A7B685B0BDBB203F01F0328
:10492000DBB21370184A7B685B09DBB25370164A1E
:104930007B68DBB203F01F03DBB29372124B0022E1
:104940009A70114B00221A740F4B2C22DA700F4B05
:1049500040221A700E4B08221A6000BF0C37BD4669
:104960005DF8047B704700BF34800440BE18FF1F11
:10497000BF18FF1FBC18FF1FBD18FF1FB018FF1F77
:1049800008C004400CC0044000C0064023E400E01E
:1049900004E100E080B485B000AF78603E4B9B78C6
:1049A000FB73FB7B23F01303DAB27B68DBB203F00B
:1049B0000303DBB21343FB737B6803F00403002B98
:1049C00003D0FB7B43F01003FB73334AFB7B9370F4
:1049D0007B6803F00F03042B07D12F4A2E4B9B79E2
:1049E000DBB243F04003DBB293712B4B5B79DBB25C
:1049F00023F01003FB737B6803F01003002B03D03C
:104A0000FB7B43F01003FB73234AFB7B5371224B68
:104A10009B79DBB223F01003FB737B6803F0200368
:104A2000002B03D0FB7B43F01003FB731A4AFB7B84
:104A30009371194B9B7ADBB203F01F03FB737B6806
:104A400003F00803002B03D0FB7B43F02003FB7330
:104A5000114AFB7B93727B68DBB223F07F03DAB2EF
:104A60000E4B1A707B6803F48073002B0DD00A4B39
:104A70005B78BB73084A084B1B78DBB243F020031A
:104A8000DBB21370044ABB7B537000BF1437BD46C2
:104A90005DF8047B704700BF00C00640DC17FF1FB5
:104AA00080B500AF164B1B6803F48053002B24D055
:104AB00001E003F0CDFB134B1B78DBB2002BF8D1E8
:104AC000114B08221A60114B0022DA70104B40F291
:104AD00003121A600F4B40F203121A600E4B0022B1
:104AE0001A700E4B00221A700D4B1B68002B05D05C
:104AF0000B4B1B6801221A7000E000BF80BD00BF95
:104B000034800440B018FF1F84E100E000C006407C
:104B100008C004400CC00440BE18FF1FBF18FF1F90
:104B2000B818FF1F80B582B000AF0346FB7100BF0D
:104B30000C4B1B78DBB2002BFAD1FB790121184614
:104B4000FEF71EFAFB7900211846FEF7D1F9FB7932
:104B5000054A52F83330054A136000BF0837BD4696
:104B600080BD00BFB018FF1FF0550100B418FF1F33
:104B700080B485B000AF03460A46FB711346BB7193
:104B8000BB79002B03D0FB7963F07F03FB71194BDA
:104B90001B78FA799A4226D0174B1B6803F480538E
:104BA000002B1CD0134B1B7803F07F03082B03D181
:104BB000124B00221A6000BFBB79002B02D0602389
:104BC000FB6001E04423FB60FB7903F07F03082BCB
:104BD00005D10A4AFB6843F44073136000BF054ADD
:104BE000FB79137000E000BF1437BD465DF8047B0D
:104BF000704700BF7707FF1F348004400CC004409B
:104C000080B483B000AF0346FB7100BF0C37BD46D4
:104C10005DF8047B704700BF80B582B000AF0346EB
:104C2000FB71124B1B6803F48053002B01D100234E
:104C300017E0FB793F2B10D8FB790D4A52F833303F
:104C40000C4A1360FB7901211846FEF799F9094BCC
:104C50001B6800221A70012303E0064B00221A6031
:104C6000002318460837BD4680BD00BF348004408D
:104C7000F0550100B818FF1F80B483B000AF0346A1
:104C8000FB71144B1B6803F48053002B01D10023EC
:104C900019E0FB790E2B0DD10F4B40F202321A6056
:104CA0000E4A0E4B5B7BDBB243F00103DBB2537366
:104CB000012308E0094A094B5B7BDBB223F00103C7
:104CC000DBB25373002318460C37BD465DF8047BF6
:104CD000704700BF3480044004C0044000C0064058
:104CE00080B586B000AF78603B4B1B6803F48053FF
:104CF000002B6CD0394B1B68002B03D0374B1B6843
:104D000001221A70364B1B78DBB27B617B69013361
:104D10007B617B69272B42D900237B613FE0FDF754
:104D20003DFFF860FB68402B34DC2E4B1B79DBB277
:104D30005BB2002B33DA2C4B1B78DBB23B613B6957
:104D400001333B613B69272B01D900233B61274A93
:104D50003B6932F813309BB2BB60254B1B78002BAC
:104D60000FD020491F4B9B79DBB223F04003DAB20E
:104D7000BB689B08DBB203F04003DBB21343DBB23A
:104D80008B71184BBA68D2B2DA713B69DAB2164B42
:104D90001A7004E0FB68FF2B01DD03F059FA124B97
:104DA0001B78DBB21A467B699A42B8D07B6899B20D
:104DB0000E4A7B6922F813100E4B01221A707B6990
:104DC000DAB2074B1A70074BAC22DA7000E000BF72
:104DD0001837BD4680BD00BF34800440B418FF1FA3
:104DE000BC18FF1F00C00640BD18FF1FE017FF1FC3
:104DF000DC17FF1FB018FF1F80B584B000AF7860CC
:104E000039607B68FB6006E0FB685A1CFA601B781F
:104E10001846FFF765FF3B685A1E3A60002BF3D136
:104E200000BF1037BD4680BD80B500AF01E003F084
:104E30000FFA034B1B78DBB2002BF8D100BF80BD0B
:104E4000B018FF1F80B483B000AF0D4B1B78DBB2EE
:104E50007B600C4B1B78DBB23B607A683B689A4204
:104E600004D33A687B68D31A273303E03A687B6837
:104E7000D31A013B18460C37BD465DF8047B7047DA
:104E8000BC18FF1FBD18FF1F80B483B000AF0D4BCF
:104E90001B78DBB27B600C4B1B78DBB23B607A6823
:104EA0003B689A4203D37A683B68D31A03E07A6876
:104EB0003B68D31A403318460C37BD465DF8047B77
:104EC000704700BFBE18FF1FBF18FF1F80B485B01A
:104ED00000AF204B1B78DBB27B601F4B1B78DBB233
:104EE000FB607A68FB689A4202D14FF0FF332BE0F7
:104EF000FB680133FB60FB683F2B01D90023FB609B
:104F0000164AFB6832F813309BB23B60FB68DAB29A
:104F1000114B1A70124B1B68002B14D07A68FB6877
:104F20009A4204D37A68FB68D31ABB6004E07A68BB
:104F3000FB68D31A4033BB60BB681A2B03DC084BF9
:104F40001B6800221A703B6818461437BD465DF88E
:104F5000047B7047BE18FF1FBF18FF1F3018FF1FCC
:104F6000B818FF1F80B483B000AF114B1B78DBB2C1
:104F70003B60104B1B78DBB27B603A687B689A42DF
:104F800002D14FF0FF330CE07B6801337B607B681C
:104F90003F2B01D900237B60074A7B6832F813302E
:104FA0009BB218460C37BD465DF8047B704700BFC6
:104FB000BE18FF1FBF18FF1F3018FF1F80B400AFBF
:104FC000084B1B78DAB2084B1A70084B1B68002B91
:104FD00003D0064B1B6800221A7000BFBD465DF867
:104FE000047B7047BF18FF1FBE18FF1FB818FF1FB4
:104FF00080B487B000AF5D4B1B79DBB203F02003B8
:10500000002B4CD05A4B1B78002B0CD0574B9B7964
:10501000DBB25BB2002B06DA544BDB79DBB243F434
:105020008073FB6003E0514BDB79DBB2FB60514BDB
:105030001B78DBB201337B617B693F2B01D90023F5
:105040007B614D4B1B78DBB21A467B699A4209D0D3
:10505000FB6899B2494A7B6922F813107B69DAB27E
:10506000444B1A70464B1B68002B18D0454B1B78DD
:10507000DBB23B617A693B699A4204D37A693B6946
:10508000D31ABB6004E07A693B69D31A4033BB6032
:10509000BB68272B03DD3A4B1B6801221A70334B88
:1050A000DB78FB7197F90730002B3FDA2F4B1B7928
:1050B000DBB25BB2002B39DA334B1B78DBB27B619E
:1050C000304B1B78DBB23B617A693B699A4203D172
:1050D000264B6C22DA7029E03B6901333B613B6966
:1050E000272B01D900233B61284A3B6932F8133052
:1050F0009BB2FB601E4B1B78002B0FD01B491B4B38
:105100009B79DBB223F04003DAB2FB689B08DBB289
:1051100003F04003DBB21343DBB28B71134BFA682D
:10512000D2B2DA713B69DAB2164B1A70FB7903F02E
:105130004003002B14D00D4B1B79DBB203F040036E
:10514000002B0DD0124B00221A70124B1B68002B43
:1051500003D0104B1B6800221A70044B2C22DA700B
:1051600000BF1C37BD465DF8047B704700C0064099
:10517000DC17FF1FBE18FF1FBF18FF1F3018FF1FCF
:10518000B818FF1FBD18FF1FBC18FF1FE017FF1F37
:10519000B018FF1FB418FF1F80B483B000AF786051
:1051A000324A324B1B6843F400531360304B0022E9
:1051B0001A70304B00221A702F4B00221A702F4B9E
:1051C00000221A702E4B00221A702E4B1B781F2BB8
:1051D00002D03F2B05D009E02B4B40F213321A606E
:1051E00004E02A4B40F213321A6000BF284B1B78B0
:1051F000202B02D03E2B05D009E0264B4FF45172F4
:105200001A6004E0244B4FF451721A6000BF7B68AF
:105210001F2B01D820237B60204A7B685B0BDBB20D
:1052200003F01F03DBB213701C4A7B685B09DBB21F
:1052300053701A4A7B68DBB203F01F03DBB2937230
:10524000164B00229A70154B00221A74134B2C2215
:10525000DA70134B40221A70124B20221A6000BFE2
:105260000C37BD465DF8047B704700BF34800440B6
:10527000A219FF1FA319FF1FA019FF1FA119FF1FCC
:105280009419FF1F7807FF1F28A0044014D0044082
:105290007907FF1F2CA0044010D0044000D0064026
:1052A00025E400E004E100E080B485B000AF786060
:1052B0003E4B9B78FB73FB7B23F01303DAB27B68D6
:1052C000DBB203F00303DBB21343FB737B6803F031
:1052D0000403002B03D0FB7B43F01003FB73334A22
:1052E000FB7B93707B6803F00F03042B07D12F4ADD
:1052F0002E4B9B79DBB243F04003DBB293712B4B17
:105300005B79DBB223F01003FB737B6803F01003BF
:10531000002B03D0FB7B43F01003FB73234AFB7B82
:105320005371224B9B79DBB223F01003FB737B6834
:1053300003F02003002B03D0FB7B43F01003FB732F
:105340001A4AFB7B9371194B9B7ADBB203F01F0364
:10535000FB737B6803F00803002B03D0FB7B43F057
:105360002003FB73114AFB7B93727B68DBB223F053
:105370007F03DAB20E4B1A707B6803F48073002B44
:105380000DD00A4B5B78BB73084A084B1B78DBB225
:1053900043F02003DBB21370044ABB7B537000BFA1
:1053A0001437BD465DF8047B704700BF00D006404F
:1053B000C018FF1F80B500AF234B1B6803F40053D8
:1053C000002B3ED001E002F043FF204B1B78DBB204
:1053D000002BF8D11E4B20221A601E4B0022DA70DF
:1053E0001D4B1B781F2B02D03F2B05D008E01B4B19
:1053F00040F203121A6003E0194B00221A6000BF4A
:10540000184B1B7803F07F03202B02D03E2B05D0D6
:1054100008E0154B40F203121A6003E0134B002220
:105420001A6000BF124B00221A70124B00221A7031
:10543000114B1B68002B05D00F4B1B6801221A7003
:1054400000E000BF80BD00BF348004409419FF1FFE
:1054500084E100E000D006407807FF1F28A0044048
:1054600014D004407907FF1F2CA0044010D0044042
:10547000A219FF1FA319FF1F9C19FF1F80B582B03F
:1054800000AF0346FB7100BF0C4B1B78DBB2002B57
:10549000FAD1FB7901211846FDF772FDFB79002155
:1054A0001846FDF725FDFB79054A52F83330054AC9
:1054B000136000BF0837BD4680BD00BF9419FF1FB1
:1054C000F05501009819FF1F80B485B000AF034666
:1054D0000A46FB711346BB71BB79002B03D0FB79E5
:1054E00063F07F03FB71214B1B78FA799A4236D027
:1054F0001F4B1B6803F40053002B2CD01B4B1B7855
:1055000003F07F03202B02D03E2B04D007E0194B81
:1055100000221A6003E0184B00221A6000BFBB791A
:10552000002B02D06023FB6001E04423FB60FB7989
:1055300003F07F03202B02D03E2B06D00BE00D4A58
:10554000FB6843F44073136005E00B4AFB6843F4C7
:105550004073136000BF054AFB79137000E000BF81
:105560001437BD465DF8047B704700BF7907FF1F05
:10557000348004402CA0044010D0044080B483B098
:1055800000AF0346FB711A4B1B78FA799A4228D078
:10559000184B1B6803F40053002B1ED0144B1B78D0
:1055A0001F2B02D03F2B04D007E0134B00221A60C0
:1055B00003E0124B00221A6000BFFB791F2B02D0C0
:1055C0003F2B05D009E00C4B40F213321A6004E087
:1055D0000A4B40F213321A6000BF054AFB79137080
:1055E00000E000BF0C37BD465DF8047B704700BF8C
:1055F0007807FF1F3480044028A0044014D00440E2
:1056000080B582B000AF0346FB71124B1B6803F4F8
:105610000053002B01D1002317E0FB793F2B10D85A
:10562000FB790D4A52F833300C4A1360FB790121A3
:105630001846FDF7A5FC094B1B6800221A700123D0
:1056400003E0064B00221A60002318460837BD46C7
:1056500080BD00BF34800440F05501009C19FF1F3D
:1056600080B483B000AF0346FB71002318460C37AB
:10567000BD465DF8047B704780B586B000AF7860AA
:105680003B4B1B6803F40053002B6CD0394B1B6859
:10569000002B03D0374B1B6801221A70364B1B7846
:1056A000DBB27B617B6901337B617B69272B42D94C
:1056B00000237B613FE0FDF771FAF860FB68402B47
:1056C00034DC2E4B1B79DBB25BB2002B33DA2C4B74
:1056D0001B78DBB23B613B6901333B613B69272BA4
:1056E00001D900233B61274A3B6932F813309BB252
:1056F000BB60254B1B78002B0FD020491F4B9B799B
:10570000DBB223F04003DAB2BB689B08DBB203F0E4
:105710004003DBB21343DBB28B71184BBA68D2B2D1
:10572000DA713B69DAB2164B1A7004E0FB68FF2BA2
:1057300001DD02F08DFD124B1B78DBB21A467B694E
:105740009A42B8D07B6899B20E4A7B6922F813104E
:105750000E4B01221A707B69DAB2074B1A70074BA5
:10576000AC22DA7000E000BF1837BD4680BD00BF34
:10577000348004409819FF1FA019FF1F00D0064075
:10578000A119FF1FC418FF1FC018FF1F9419FF1F86
:1057900080B584B000AF786039607B68FB6006E05C
:1057A000FB685A1CFA601B781846FFF765FF3B68D8
:1057B0005A1E3A60002BF3D100BF1037BD4680BDA2
:1057C00080B500AF01E002F043FD034B1B78DBB274
:1057D000002BF8D100BF80BD9419FF1F80B483B0A7
:1057E00000AF0D4B1B78DBB27B600C4B1B78DBB240
:1057F0003B607A683B689A4204D33A687B68D31A64
:10580000273303E03A687B68D31A013B18460C370C
:10581000BD465DF8047B7047A019FF1FA119FF1F4B
:1058200080B483B000AF0D4B1B78DBB27B600C4BB8
:105830001B78DBB23B607A683B689A4203D37A6894
:105840003B68D31A03E07A683B68D31A40331846A2
:105850000C37BD465DF8047B704700BFA219FF1FDF
:10586000A319FF1F80B485B000AF204B1B78DBB2BB
:105870007B601F4B1B78DBB2FB607A68FB689A4247
:1058800002D14FF0FF332BE0FB680133FB60FB6874
:105890003F2B01D90023FB60164AFB6832F8133016
:1058A0009BB23B60FB68DAB2114B1A70124B1B685B
:1058B000002B14D07A68FB689A4204D37A68FB689C
:1058C000D31ABB6004E07A68FB68D31A4033BB602C
:1058D000BB681A2B03DC084B1B6800221A703B685C
:1058E00018461437BD465DF8047B7047A219FF1FA8
:1058F000A319FF1F1419FF1F9C19FF1F80B483B049
:1059000000AF114B1B78DBB23B60104B1B78DBB256
:105910007B603A687B689A4202D14FF0FF330CE01B
:105920007B6801337B607B683F2B01D900237B6060
:10593000074A7B6832F813309BB218460C37BD46D5
:105940005DF8047B704700BFA219FF1FA319FF1F5A
:105950001419FF1F80B400AF084B1B78DAB2084B54
:105960001A70084B1B68002B03D0064B1B680022E3
:105970001A7000BFBD465DF8047B7047A319FF1F76
:10598000A219FF1F9C19FF1F80B487B000AF5D4BA9
:105990001B79DBB203F02003002B4CD05A4B1B7851
:1059A000002B0CD0574B9B79DBB25BB2002B06DA95
:1059B000544BDB79DBB243F48073FB6003E0514B63
:1059C000DB79DBB2FB60514B1B78DBB201337B61CF
:1059D0007B693F2B01D900237B614D4B1B78DBB2E8
:1059E0001A467B699A4209D0FB6899B2494A7B6999
:1059F00022F813107B69DAB2444B1A70464B1B68CD
:105A0000002B18D0454B1B78DBB23B617A693B69B0
:105A10009A4204D37A693B69D31ABB6004E07A697D
:105A20003B69D31A4033BB60BB68272B03DD3A4B7D
:105A30001B6801221A70334BDB78FB7197F9073032
:105A4000002B3FDA2F4B1B79DBB25BB2002B39DA2C
:105A5000334B1B78DBB27B61304B1B78DBB23B6195
:105A60007A693B699A4203D1264B6C22DA7029E0AD
:105A70003B6901333B613B69272B01D900233B6123
:105A8000284A3B6932F813309BB2FB601E4B1B78EF
:105A9000002B0FD01B491B4B9B79DBB223F040033B
:105AA000DAB2FB689B08DBB203F04003DBB21343BE
:105AB000DBB28B71134BFA68D2B2DA713B69DAB29E
:105AC000164B1A70FB7903F04003002B14D00D4BDA
:105AD0001B79DBB203F04003002B0DD0124B0022E8
:105AE0001A70124B1B68002B03D0104B1B6800224E
:105AF0001A70044B2C22DA7000BF1C37BD465DF8CB
:105B0000047B704700D00640C018FF1FA219FF1F7A
:105B1000A319FF1F1419FF1F9C19FF1FA119FF1FB5
:105B2000A019FF1FC418FF1F9419FF1F9819FF1F0A
:105B300080B483B000AF7860254A254B1B6843F4DE
:105B400080631360234B00221A70234B00221A70CB
:105B5000224B00221A70224B00221A70214B002285
:105B60001A70214B40F213321A60204B4FF45172DD
:105B70001A607B681F2B01D820237B601C4A7B683E
:105B80005B0BDBB203F01F03DBB21370184A7B68B8
:105B90005B09DBB25370164A7B68DBB203F01F036C
:105BA000DBB29372124B00229A70114B00221A74CE
:105BB0000F4B2C22DA700F4B40221A700E4B04222E
:105BC0001A6000BF0C37BD465DF8047B704700BF0C
:105BD00028800440861AFF1F871AFF1F841AFF1FA0
:105BE000851AFF1F781AFF1F64D0044060D004405C
:105BF00000A00E4042E400E008E100E080B485B07F
:105C000000AF78603E4B9B78FB73FB7B23F0130364
:105C1000DAB27B68DBB203F00303DBB21343FB733E
:105C20007B6803F00403002B03D0FB7B43F01003DD
:105C3000FB73334AFB7B93707B6803F00F03042BE9
:105C400007D12F4A2E4B9B79DBB243F04003DBB2E6
:105C500093712B4B5B79DBB223F01003FB737B68F2
:105C600003F01003002B03D0FB7B43F01003FB7306
:105C7000234AFB7B5371224B9B79DBB223F0100349
:105C8000FB737B6803F02003002B03D0FB7B43F006
:105C90001003FB731A4AFB7B9371194B9B7ADBB29F
:105CA00003F01F03FB737B6803F00803002B03D092
:105CB000FB7B43F02003FB73114AFB7B93727B68F1
:105CC000DBB223F07F03DAB20E4B1A707B6803F469
:105CD0008073002B0DD00A4B5B78BB73084A084BCE
:105CE0001B78DBB243F02003DBB21370044ABB7BAA
:105CF000537000BF1437BD465DF8047B704700BF8A
