:10000000000002201D250000E92400009D240000BE
:100010009D2400009D2400009D2400009D240000DC
:100020009D2400009D2400009D240000E924000080
:10003000E92400009D240000AD070000D90900005C
:10004000E9240000E9240000E9240000E92400007C
:10005000E9240000E9240000E9240000E92400006C
:10006000E9240000E9240000E9240000E92400005C
:10007000E9240000E9240000E9240000E92400004C
:10008000E9240000E9240000E9240000E92400003C
:10009000E9240000E9240000E9240000E92400002C
:1000A0003D99000051990000E9240000E924000076
:1000B000E9240000E9240000E9240000DD36000006
:1000C000E924000085420000E9240000A14B000063
:1000D000E924000039550000E9240000E92400006B
:1000E000E9240000E9240000E9240000E9240000DC
:1000F000E9240000E9240000E9240000E9240000CC
:100100001D1C0000391C0000551C0000711C000063
:10011000E9240000E1720000E9240000E924000065
:10012000E9240000E9240000E9240000E92400009B
:10013000E9240000E9240000E9240000E92400008B
:100140006D040000E9240000095E0000E9240000BD
:10015000D9660000E9240000E9240000E924000039
:10016000E9240000E924000065990000E92400006A
:10017000E9240000E9240000E9240000E92400004B
:10018000E9240000E9240000E9240000E92400003B
:10019000E9240000E9240000FFFFFFFFFFFFFFFF4D
:1001A000FFFFFFFFFFFFFFFFFFFFFFFFFFFFFFFF5F
:1001B000FFFFFFFFFFFFFFFFFFFFFFFFFFFFFFFF4F
:1001C000FFFFFFFFFFFFFFFFFFFFFFFFFFFFFFFF3F
:1001D000FFFFFFFFFFFFFFFFFFFFFFFFFFFFFFFF2F
:10040000FFFFFFFFFFFFFFFFFFFFFFFFDEF9FFFF23
:1004100010B5054C237833B9044B13B10448AFF33E
:1004200000800123237010BDD011FF1F00000000C9
:1004300078580100084B10B51BB108490848AFF3C4
:1004400000800848036803B910BD074B002BFBD0A0
:10045000BDE81040184700BF00000000D411FF1F86
:1004600078580100D011FF1F0000000080B584B053
:1004700000AF284A274B1B6843F080731360264A5D
:10048000254B1B6843F001031360244B1B68BB60C2
:10049000234B1B68FB60FB68002B23D0FB681B7A97
:1004A000002B1BD01D4B1B687B60FB681B681B6807
:1004B000F8689847194B1A687B68D31A1B097B6048
:1004C0007B689AB2FB689A80FB68DB881A467B6877
:1004D0009A4203D27B689AB2FB68DA80FB685B6958
:1004E000FB60D8E70D4B1A68BB68D31A1B09BB60C9
:1004F000BB689AB20B4B1A800B4B1B881A46BB6821
:100500009A4203D2BB689AB2074B1A8000BF1037D9
:10051000BD4680BDFCED00E0001000E0041000E0EE
:10052000F011FF1FEC11FF1FEE11FF1F80B485B00B
:1005300000AF78600B46FB700023FB6072B6FB785F
:1005400083F00103DBB2002B20D07B681B68002BFB
:100550001CD07B681B790F2B18D8504B1B881A4670
:100560007B681B7942FA03F303F00103002B0DD0E3
:100570007B681B681A467B681B7903F1007303F5DF
:1005800090635B019A4201D162B682E0434B1B88C3
:100590001A46FB6842FA03F303F00103002B66D10D
:1005A0000122FB6802FA03F31AB23C4B1B881BB210
:1005B00013431BB29AB2394B1A8062B600BFFB6874
:1005C000DAB27B681A71364A354B1B6843F0020376
:1005D0001360344A334B1B6843F002031360324B01
:1005E00082221A60314BFA68D2B21A70304BFA6824
:1005F000D2B21A702F4BFA68D2B21A702E4BFA6828
:10060000D2B21A70FB6803F1007303F590635B01CB
:100610001A467B681A607B681B68BB60BB681A1D42
:10062000BA6000221A60BB681A1DBA6000221A6004
:10063000BB681A1DBA6000221A60BB681A1DBA6036
:1006400000221A60BB681A1DBA6000221A60BB68DB
:100650001A1DBA6000221A60BB681A1DBA60002217
:100660001A60BB681A1DBA6000221A6011E0FB68AC
:100670000133FB60FB680F2B8CBF01230023DBB22F
:10068000002B83D062B67B6800221A607B68102240
:100690001A711437BD465DF8047B7047F411FF1FD3
:1006A000408004403C800440008000401A800040AC
:1006B0001E800040188000401F80004080B483B03E
:1006C00000AF78607B681B790F2B1CD8114A7B68C0
:1006D0001B79137072B67B681B791A46012393400D
:1006E0001BB2DB431AB20C4B1B881BB213401BB26C
:1006F0009AB2094B1A8062B67B6810221A717B6825
:1007000000221A6000E000BF0C37BD465DF8047B94
:10071000704700BF1A800040F411FF1F80B483B0FF
:1007200000AFEFF310837B6072B67B68002B0CBFC9
:1007300001230023DBB218460C37BD465DF8047B6D
:10074000704700BF80B483B000AF0346FB71FB79F4
:10075000002B00D062B600BF0C37BD465DF8047BAD
:10076000704700BF80B483B000AFEFF310837B60AD
:1007700072B67B68002B0CBF01230023DBB2184646
:100780000C37BD465DF8047B704700BF80B483B072
:1007900000AF0346FB71FB79002B00D062B600BFAF
:1007A0000C37BD465DF8047B704700BF80B500AFD5
:1007B00000F002F800BF80BD80B582B000AFFFF747
:1007C000ADFF0346FB71154B1B683B603B68002B7C
:1007D0001BD03B685B69114A1360104B1B68002BF0
:1007E00004D00E4B1B6800229A6102E00C4B0022E1
:1007F0001A60FB791846FFF7A5FF3B6800225A777D
:100800003B689B6838689847D9E7FB791846FFF73B
:1008100099FF00BF00BF0837BD4680BD0012FF1F13
:100820000412FF1F80B485B000AF78603A4B1B689C
:10083000002B09D17B6800229A607B680022DA6075
:10084000354A7B6813605EE07B681A68324B1B6830
:100850001B689A4217D2304B1A687B689A607B6893
:100860000022DA602C4B1B687A68DA602A4B1B681E
:10087000294A126811687A6812688A1A1A60264A28
:100880007B6813603FE0244B1B68FB60FB689B6840
:10089000002B28D07B681A68FB681B68D21A7B681B
:1008A0001A60FB689B68FB607B681A68FB681B68C2
:1008B0009A42EBD27B68FA689A60FB68DA687B68D8
:1008C000DA60FB687A68DA607B68DB687A689A606D
:1008D000FB681A687B681B68D21AFB681A607B6821
:1008E00002221A7512E07B681A68FB681B68D21A2C
:1008F0007B681A607B6800229A607B68FA68DA601D
:10090000FB687A689A607B6802221A751437BD46C4
:100910005DF8047B704700BF1012FF1F80B586B0E2
:1009200000AF2B4B1B687B617B69002B31D07B694F
:100930001B68002B05D07B691B685A1E7B691A60F7
:1009400027E07B699B68FB60FB68002B02D0FB689B
:100950000022DA601E4AFB6813607B6900221A7568
:100960007B691B69BB60BB681B681B687A690021D7
:10097000B86898477B695B68002B06D07B695A682A
:100980007B691A607869FFF74DFF114B1B687B612B
:10099000CAE7FFF7E7FE0346FB710E4B1B683B619E
:1009A0000C4B00221A60FB791846FFF7EFFE3B69FB
:1009B000002B08D03B699B683B603869FFF732FF2A
:1009C0003B683B61F3E700BF1837BD4680BD00BF01
:1009D0001012FF1F0C12FF1F80B500AF044B1B68E5
:1009E0000133034A1360FFF799FF00BF80BD00BFCA
:1009F0002812FF1F80B582B000AF786039603B6875
:100A00005A08064B13443A68B3FBF2F3184602F057
:100A10004FF900BF0837BD4680BD00BF001C4E0E19
:100A200080B584B000AFF860B9607A60BB685A08DE
:100A3000074B1344BA68B3FBF2F3184602F038F9D7
:100A4000786802F0D3F900BF1037BD4680BD00BF03
:100A5000001C4E0E80B582B000AF786002F04CFAF8
:100A600000BF0837BD4680BD80B582B000AF78605A
:100A70000B46FB70FB78184602F0B4FA00BF08374B
:100A8000BD4680BD80B582B000AF78600B46FB707C
:100A9000FB78184602F034FB00BF0837BD4680BD26
:100AA00080B582B000AF78600B46FB701346BB7018
:100AB000BA78FB781146184602F0BAFA00BF083738
:100AC000BD4680BD80B582B000AF78600B46FB703C
:100AD000FB78184602F062FB0346002B14BF01238B
:100AE0000023DBB218460837BD4680BD80B582B012
:100AF00000AF78600B46FB70FB78184602F07EFB77
:100B00000346002B14BF01230023DBB2184608372D
:100B1000BD4680BD80B582B000AF786002F00CFDAC
:100B2000034618460837BD4680BD00BF80B582B079
:100B300000AF786002F06EFD034618460837BD46E8
:100B400080BD00BF80B582B000AF786002F016FDB6
:100B5000034618460837BD4680BD00BF80B582B049
:100B600000AF786002F0B8FC00BF0837BD4680BD1A
:100B700080B582B000AF786002F078FD00BF083722
:100B8000BD4680BD80B582B000AF786002F0B2FC97
:100B9000034618460837BD4680BD00BF80B582B009
:100BA00000AF78600B46FB70FB78184602F064FBE0
:100BB000012318460837BD4680BD00BF80B582B00E
:100BC00000AF786039607B681B681B683A68D2B2F6
:100BD000114678689847034618460837BD4680BDD9
:100BE00080B582B000AF786039607B681B681B6895
:100BF0003A68D2B2114678689847034618460837D3
:100C0000BD4680BD80B582B000AF786039607B683A
:100C10001B681B683A68D2B2114678689847034649
:100C200018460837BD4680BD80B582B000AF7860F9
:100C300039607B681B681B683A68D2B211467868D5
:100C40009847034618460837BD4680BD80B584B036
:100C500000AFF860B9607A607968B86802F098FB14
:100C60007B6818461037BD4680BD00BF80B584B094
:100C700000AF78603960386812F030FAF860F968CF
:100C8000386802F085FBFB6818461037BD4680BD0A
:100C900080B582B000AF78603960386802F0ECFA55
:100CA000012318460837BD4680BD00BF80B400AFA1
:100CB00000BFBD465DF8047B704700BF80B582B0C1
:100CC00000AF786039603B685A08064B13443A68B5
:100CD000B3FBF2F3184602F0FBFD00BF0837BD4638
:100CE00080BD00BF001C4E0E80B584B000AFF86020
:100CF000B9607A60BB685A08074B1344BA68B3FB03
:100D0000F2F3184602F0E4FD786802F06FFE00BFCF
:100D10001037BD4680BD00BF001C4E0E80B582B0AE
:100D200000AF786002F0E8FE00BF0837BD4680BD26
:100D300080B582B000AF78600B46FB70FB78184638
:100D400002F03EFF00BF0837BD4680BD80B582B0CF
:100D500000AF78600B46FB70FB78184602F0B0FFDE
:100D600000BF0837BD4680BD80B582B000AF786057
:100D70000B46FB701346BB70BA78FB7811461846D9
:100D800002F044FF00BF0837BD4680BD80B582B089
:100D900000AF78600B46FB70FB78184602F0D2FF7C
:100DA0000346002B14BF01230023DBB2184608378B
:100DB000BD4680BD80B582B000AF78600B46FB7049
:100DC000FB78184602F0EEFF0346002B14BF012308
:100DD0000023DBB218460837BD4680BD80B582B01F
:100DE00000AF786003F07CF9034618460837BD462B
:100DF00080BD00BF80B582B000AF786003F0DEF93F
:100E0000034618460837BD4680BD00BF80B582B096
:100E100000AF786003F086F9034618460837BD46F0
:100E200080BD00BF80B582B000AF786003F028F9C4
:100E300000BF0837BD4680BD80B582B000AF786086
:100E400003F0E8F900BF0837BD4680BD80B582B029
:100E500000AF786003F022F9034618460837BD4614
:100E600080BD00BF80B582B000AF78600B46FB70DC
:100E7000FB78184602F0D4FF012318460837BD4618
:100E800080BD00BF80B582B000AF786039607B68FC
:100E90001B681B683A68D2B21146786898470346C7
:100EA00018460837BD4680BD80B582B000AF786077
:100EB00039607B681B681B683A68D2B21146786853
:100EC0009847034618460837BD4680BD80B582B0B6
:100ED00000AF786039607B681B681B683A68D2B2E3
:100EE000114678689847034618460837BD4680BDC6
:100EF00080B582B000AF786039607B681B681B6882
:100F00003A68D2B2114678689847034618460837BF
:100F1000BD4680BD80B584B000AFF860B9607A602E
:100F20007968B86803F008F87B6818461037BD4642
:100F300080BD00BF80B584B000AF7860396038688C
:100F400012F0CCF8F860F968386802F0F5FFFB6839
:100F500018461037BD4680BD80B582B000AF7860BE
:100F60003960386802F05CFF012318460837BD4637
:100F700080BD00BF80B400AF00BFBD465DF8047BFC
:100F8000704700BF80B582B000AF786039603B68C1
:100F90005A08064B13443A68B3FBF2F3184603F0C1
:100FA0006BFA00BF0837BD4680BD00BF000E2707A3
:100FB00080B584B000AFF860B9607A60BB685A0849
:100FC000074B1344BA68B3FBF2F3184603F054FA24
:100FD000786803F0B7FA00BF1037BD4680BD00BF88
:100FE000000E270780B582B000AF786003F030FBB9
:100FF00000BF0837BD4680BD80B582B000AF7860C5
:101000000B46FB70FB78184603F064FB00BF083703
:10101000BD4680BD80B582B000AF78600B46FB70E6
:10102000FB78184603F0C4FB00BF0837BD4680BDFF
:1010300080B582B000AF78600B46FB701346BB7082
:10104000BA78FB781146184603F06AFB00BF0837F0
:10105000BD4680BD80B582B000AF78600B46FB70A6
:10106000FB78184603F0B0FB0346002B14BF0123A6
:101070000023DBB218460837BD4680BD80B582B07C
:1010800000AF78600B46FB70FB78184603F0CCFB92
:101090000346002B14BF01230023DBB21846083798
:1010A000BD4680BD80B582B000AF786003F0C4FC5F
:1010B000034618460837BD4680BD00BF80B582B0E4
:1010C00000AF786003F026FD034618460837BD469A
:1010D00080BD00BF80B582B000AF786003F0CEFC69
:1010E000034618460837BD4680BD00BF80B582B0B4
:1010F00000AF786003F070FC00BF0837BD4680BDCC
:1011000080B582B000AF786003F030FD00BF0837D3
:10111000BD4680BD80B582B000AF786003F06AFC48
:10112000034618460837BD4680BD00BF80B582B073
:1011300000AF78600B46FB70FB78184603F0A8FB05
:10114000012318460837BD4680BD00BF80B582B078
:1011500000AF786039607B681B681B683A68D2B260
:10116000114678689847034618460837BD4680BD43
:1011700080B582B000AF786039607B681B681B68FF
:101180003A68D2B21146786898470346184608373D
:10119000BD4680BD80B582B000AF786039607B68A5
:1011A0001B681B683A68D2B21146786898470346B4
:1011B00018460837BD4680BD80B582B000AF786064
:1011C00039607B681B681B683A68D2B21146786840
:1011D0009847034618460837BD4680BD80B584B0A1
:1011E00000AFF860B9607A607968B86803F0DCFB3A
:1011F0007B6818461037BD4680BD00BF80B584B0FF
:1012000000AF78603960386811F068FFF860F968FD
:10121000386803F0C9FBFB6818461037BD4680BD2F
:1012200080B582B000AF78603960386803F030FB79
:10123000012318460837BD4680BD00BF80B400AF0B
:1012400000BFBD465DF8047B704700BF80B582B02B
:1012500000AF786039603B685A08064B13443A681F
:10126000B3FBF2F3184603F06FFD00BF0837BD462D
:1012700080BD00BF000E270780B584B000AFF860C6
:10128000B9607A60BB685A08074B1344BA68B3FB6D
:10129000F2F3184603F058FD786803F0DDFD00BF57
:1012A0001037BD4680BD00BF000E270780B582B055
:1012B00000AF786003F056FE00BF0837BD4680BD22
:1012C00080B582B000AF78600B46FB70FB781846A3
:1012D00003F0ACFE00BF0837BD4680BD80B582B0CC
:1012E00000AF78600B46FB70FB78184603F01EFFDA
:1012F00000BF0837BD4680BD80B582B000AF7860C2
:101300000B46FB701346BB70BA78FB781146184643
:1013100003F0B2FE00BF0837BD4680BD80B582B085
:1013200000AF78600B46FB70FB78184603F040FF77
:101330000346002B14BF01230023DBB218460837F5
:10134000BD4680BD80B582B000AF78600B46FB70B3
:10135000FB78184603F05CFF0346002B14BF012303
:101360000023DBB218460837BD4680BD80B582B089
:1013700000AF786004F02CF8034618460837BD46E5
:1013800080BD00BF80B582B000AF786004F08EF8F9
:10139000034618460837BD4680BD00BF80B582B001
:1013A00000AF786004F036F8034618460837BD46AB
:1013B00080BD00BF80B582B000AF786003F0D8FF79
:1013C00000BF0837BD4680BD80B582B000AF7860F1
:1013D00004F098F800BF0837BD4680BD80B582B0E4
:1013E00000AF786003F0D2FF034618460837BD46C9
:1013F00080BD00BF80B582B000AF78600B46FB7047
:10140000FB78184603F010FF012318460837BD4645
:1014100080BD00BF80B582B000AF786039607B6866
:101420001B681B683A68D2B2114678689847034631
:1014300018460837BD4680BD80B582B000AF7860E1
:1014400039607B681B681B683A68D2B211467868BD
:101450009847034618460837BD4680BD80B582B020
:1014600000AF786039607B681B681B683A68D2B24D
:10147000114678689847034618460837BD4680BD30
:1014800080B582B000AF786039607B681B681B68EC
:101490003A68D2B21146786898470346184608372A
:1014A000BD4680BD80B584B000AFF860B9607A6099
:1014B0007968B86803F044FF7B6818461037BD466A
:1014C00080BD00BF80B584B000AF786039603868F7
:1014D00011F004FEF860F968386803F031FFFB682A
:1014E00018461037BD4680BD80B582B000AF786029
:1014F0003960386803F098FE012318460837BD4666
:1015000080BD00BF80B400AF00BFBD465DF8047B66
:10151000704700BF80B582B000AF786039603B682B
:101520005A08064B13443A68B3FBF2F3184604F02A
:10153000D7F800BF0837BD4680BD00BF000E2707A3
:1015400080B584B000AFF860B9607A60BB685A08B3
:10155000074B1344BA68B3FBF2F3184604F0C0F823
:10156000786804F023F900BF1037BD4680BD00BF86
:10157000000E270780B582B000AF786004F09CF9B8
:1015800000BF0837BD4680BD80B582B000AF78602F
:101590000B46FB70FB78184604F0D0F900BF083703
:1015A000BD4680BD80B582B000AF78600B46FB7051
:1015B000FB78184604F030FA00BF0837BD4680BDFE
:1015C00080B582B000AF78600B46FB701346BB70ED
:1015D000BA78FB781146184604F0D6F900BF0837F0
:1015E000BD4680BD80B582B000AF78600B46FB7011
:1015F000FB78184604F01CFA0346002B14BF0123A5
:101600000023DBB218460837BD4680BD80B582B0E6
:1016100000AF78600B46FB70FB78184604F038FA90
:101620000346002B14BF01230023DBB21846083702
:10163000BD4680BD80B582B000AF786004F030FB5D
:10164000034618460837BD4680BD00BF80B582B04E
:1016500000AF786004F092FB034618460837BD4699
:1016600080BD00BF80B582B000AF786004F03AFB67
:10167000034618460837BD4680BD00BF80B582B01E
:1016800000AF786004F0DCFA00BF0837BD4680BDCB
:1016900080B582B000AF786004F09CFB00BF0837D3
:1016A000BD4680BD80B582B000AF786004F0D6FA48
:1016B000034618460837BD4680BD00BF80B582B0DE
:1016C00000AF78600B46FB70FB78184604F014FA04
:1016D000012318460837BD4680BD00BF80B582B0E3
:1016E00000AF786039607B681B681B683A68D2B2CB
:1016F000114678689847034618460837BD4680BDAE
:1017000080B582B000AF786039607B681B681B6869
:101710003A68D2B2114678689847034618460837A7
:10172000BD4680BD80B582B000AF786039607B680F
:101730001B681B683A68D2B211467868984703461E
:1017400018460837BD4680BD80B582B000AF7860CE
:1017500039607B681B681B683A68D2B211467868AA
:101760009847034618460837BD4680BD80B584B00B
:1017700000AFF860B9607A607968B86804F048FA38
:101780007B6818461037BD4680BD00BF80B584B069
:1017900000AF78603960386811F0A0FCF860F96833
:1017A000386804F035FAFB6818461037BD4680BD2E
:1017B00080B582B000AF78603960386804F09CF979
:1017C000012318460837BD4680BD00BF80B400AF76
:1017D00000BFBD465DF8047B704700BF80B582B096
:1017E00000AF786039603B685A08064B13443A688A
:1017F000B3FBF2F3184604F0DBFB00BF0837BD462D
:1018000080BD00BF000E270780B584B000AFF86030
:10181000B9607A60BB685A08074B1344BA68B3FBD7
:10182000F2F3184604F0C4FB786804F027FC00BF0C
:101830001037BD4680BD00BF000E270780B582B0BF
:1018400000AF786004F0A0FC00BF0837BD4680BD43
:1018500080B582B000AF78600B46FB70FB7818460D
:1018600004F0D4FC00BF0837BD4680BD80B582B00F
:1018700000AF78600B46FB70FB78184604F034FD2F
:1018800000BF0837BD4680BD80B582B000AF78602C
:101890000B46FB701346BB70BA78FB7811461846AE
:1018A00004F0DAFC00BF0837BD4680BD80B582B0C9
:1018B00000AF78600B46FB70FB78184604F020FD03
:1018C0000346002B14BF01230023DBB21846083760
:1018D000BD4680BD80B582B000AF78600B46FB701E
:1018E000FB78184604F03CFD0346002B14BF01238F
:1018F0000023DBB218460837BD4680BD80B582B0F4
:1019000000AF786004F034FE034618460837BD4641
:1019100080BD00BF80B582B000AF786004F096FE55
:10192000034618460837BD4680BD00BF80B582B06B
:1019300000AF786004F03EFE034618460837BD4607
:1019400080BD00BF80B582B000AF786004F0E0FDDC
:1019500000BF0837BD4680BD80B582B000AF78605B
:1019600004F0A0FE00BF0837BD4680BD80B582B040
:1019700000AF786004F0DAFD034618460837BD462C
:1019800080BD00BF80B582B000AF78600B46FB70B1
:10199000FB78184604F018FD012318460837BD46A9
:1019A00080BD00BF80B582B000AF786039607B68D1
:1019B0001B681B683A68D2B211467868984703469C
:1019C00018460837BD4680BD80B582B000AF78604C
:1019D00039607B681B681B683A68D2B21146786828
:1019E0009847034618460837BD4680BD80B582B08B
:1019F00000AF786039607B681B681B683A68D2B2B8
:101A0000114678689847034618460837BD4680BD9A
:101A100080B582B000AF786039607B681B681B6856
:101A20003A68D2B211467868984703461846083794
:101A3000BD4680BD80B584B000AFF860B9607A6003
:101A40007968B86804F04CFD7B6818461037BD46CD
:101A500080BD00BF80B584B000AF78603960386861
:101A600011F03CFBF860F968386804F039FDFB6858
:101A700018461037BD4680BD80B582B000AF786093
:101A80003960386804F0A0FC012318460837BD46C9
:101A900080BD00BF80B400AF00BFBD465DF8047BD1
:101AA000704700BF80B584B000AFF8600B467A6025
:101AB000FB72F97A7B68DAB20023F86800F02AF941
:101AC000034618461037BD4680BD00BF80B483B0C2
:101AD00000AF7860044A7B681A607B6818460C3750
:101AE000BD465DF8047B7047AC4A010080B582B00A
:101AF00000AF786039607B681846FFF7E7FF054A5A
:101B00007B681A607B683A685A607B6818460837B9
:101B1000BD4680BDA04A010080B584B000AF7860AA
:101B200039600023FB607A68FB68134404331B7838
:101B30000A2219463868FFF7B5FFFB680133FB60DE
:101B4000FB68032BCCBF01230023DBB2002B01D0A9
:101B5000042306E03B681B681B682E213868984701
:101B6000E1E718461037BD4680BD00BF80B582B0A2
:101B700000AF786039607B68012B08D13B684FF675
:101B8000FF72934203D100210348FFF7AFFF00BF6C
:101B90000837BD4680BD00BF1412FF1F80B500AFDF
:101BA0004FF6FF710120FFF7E1FF80BD80B485B0E3
:101BB00000AF78607B681B68002B20D07B681B68B7
:101BC0001A46124B13441B11FB60FB6830335B1148
:101BD0009A000F4B1344FA68303202F01F020121C1
:101BE00001FA02F21A600B4AFB680B4942F8231013
:101BF0007B681B6800229A607B6800221A6000BF25
:101C00001437BD465DF8047B704700BF008FFCBFF2
:101C100080E100E05C07FF1F8D1C000080B500AF75
:101C2000034B01221A60034B1B68984700BF80BD1D
:101C30000C7103405C07FF1F80B500AF034B01220E
:101C40001A60034B5B68984700BF80BD1C7103405E
:101C50005C07FF1F80B500AF034B01221A60034BE6
:101C60009B68984700BF80BD2C7103405C07FF1F35
:101C700080B500AF034B01221A60034BDB68984725
:101C800000BF80BD3C7103405C07FF1F80B400AF04
:101C900000BFBD465DF8047B704700BF80B483B0D1
:101CA00000AF7860002318460C37BD465DF8047B12
:101CB000704700BF80B483B000AF786000BF0C37BE
:101CC000BD465DF8047B704780B586B000AFF86014
:101CD000B9607A6000237B617B685A1E7A60002BB2
:101CE00014BF01230023DBB2002B0ED0FB681B685E
:101CF0001A68BB68591CB9601B781946F868904788
:101D000002467B6913447B61E6E77B691846183716
:101D1000BD4680BD80B58EB000AFF860B960114699
:101D20001A460B46FB711346BB71FB79002B09D198
:101D3000FB681B681B68BA68D2B21146F8689847FE
:101D4000034663E0FB79012B01D10A23FB71BB68D9
:101D5000002B0BD1212307F138021344302203F862
:101D6000242C2223013B87F837302FE02223013B2C
:101D700087F83730FA79BB68B3FBF2F102FB01F266
:101D80009B1A87F8363097F8372097F83630092BAA
:101D900004D897F836303033DBB203E097F83630AA
:101DA0003733DBB207F138010A4402F8243CFB79EF
:101DB000BA68B2FBF3F3BB60BB68002B05D097F8A1
:101DC0003730013B87F83730D4E700BFBB79002BB1
:101DD0000CD097F83730013B87F8373097F8373019
:101DE00007F1380213442D2203F8242CFB681B68EA
:101DF00004331B6897F8372007F11401114497F852
:101E00003720C2F12202F86898470346184638374F
:101E1000BD4680BD80B483B000AF78607B6800228F
:101E20001A607B6880221A717B6818460C37BD46A1
:101E30005DF8047B704700BF80B582B000AF78606A
:101E40007868FFF7B3FE7B6818460837BD4680BD4B
:101E500080B582B000AF786039607B68012B0CD10F
:101E60003B684FF6FF72934207D10648FFF7D2FF57
:101E7000054A064903480CF019FF00BF0837BD4664
:101E800080BD00BF1C12FF1FF806FF1F391E000097
:101E900080B500AF4FF6FF710120FFF7D9FF80BD7D
:101EA00080B483B000AF484B60221A70474BE122E8
:101EB0001A70474B1B78082B0CD1464B21221A6015
:101EC000454B13221A60454B21221A60444B1322C2
:101ED0001A602DE03E4B1B780A2B0CD13D4B39226A
:101EE0001A603D4B13221A603C4B39221A603C4B5E
:101EF00013221A601CE0364B1B780C2B0CD1354B8F
:101F000035221A60344B12221A60344B35221A6083
:101F1000334B12221A600BE02E4B5D221A602E4BBF
:101F200012221A602D4B5D221A602D4B12221A606C
:101F30002C4B1B78002B06D02B4B01221A602B4B0D
:101F400001221A6005E0284B00221A60274B00226C
:101F50001A60274B1B787B607B68012B06D8254BCA
:101F600080221A60244B80221A6023E07B68042BB5
:101F700006D8204B84221A601F4B84221A6019E075
:101F80007B68082B06D81B4B85221A601A4B8522CA
:101F90001A600FE07B68102B06D8164B86221A6059
:101FA000154B86221A6005E0124B87221A60124BED
:101FB00087221A60114B01221A7000BF0C37BD46F0
:101FC0005DF8047B704700BF0040074001400740B8
:101FD0006C07FF1F08B003400CB0034008B00B4073
:101FE0000CB00B402512FF1F20B0034020B00B4067
:101FF0006D07FF1F24B0034024B00B402412FF1FC5
:1020000090B587B000AF00237B61274B3C46186832
:1020100059689A68DB680FC4244B1B78DBB203F065
:102020000203002B34D0224B1B78DBB203F0700389
:10203000FB74FB7C002B02D01D4AFB7C13701D4BF4
:1020400080221A701C4B00221A701C4B12221A702C
:102050001B4B05221A7072B63B4643F0010314482D
:10206000984762B6124B1B78BB74BB7C03F07003BD
:10207000002B0DD00E4ABB7C03F07003DBB2137053
:102080000FE07B6901337B617B690E4A934207D87D
:10209000064B1B78DBB203F00103002BF1D000E00C
:1020A00000BF1C37BD4690BDC84A01000100024078
:1020B0000000024007000240040002400B00024002
:1020C0000A000240400D030080B584B000AF786084
:1020D0007B68FB60FB68B3F5805F01D300230DE0F4
:1020E000084B1B78DBB203F00103002B01D1FFF793
:1020F00087FFFB6803F1A0531B78DBB2184610374B
:10210000BD4680BD0100024080B400AF00BF064B59
:102110001B78DBB203F00103002BF8D000BFBD46F3
:102120005DF8047B704700BF0100024080B584B0B9
:1021300000AF78600B46FB707B68FB60FB68B3F513
:10214000805F24D2144B1B78DBB203F00103002B19
:1021500001D1FFF755FFFB6803F1A0531B78DBB2F9
:10216000FA789A4214D00D4B1B78DBB203F070035F
:10217000FB72FB7A002B02D0084AFB7A1370FB68D3
:1021800003F1A053FA781A70FFF7BEFF00E000BF1A
:102190001037BD4680BD00BF010002400000024074
:1021A00080B58AB000AFF860B9607A60BB687B62C6
:1021B000FB683B627B6AB3F5805F80F0CC80684B44
:1021C0001B78DBB203F00103002B01D1FFF718FFEE
:1021D0007B68B3F5805F02D34FF480537B607A6AEB
:1021E0007B681344B3F5805FC0F0B0807B6AC3F5B1
:1021F00080537B60AAE07B6A03F00303FB61FB6909
:10220000002B43D17B68032B40D93B6A5A1C3A62AE
:102210001B78BB613B6A5A1C3A621B781B021A4648
:10222000BB691343BB613B6A5A1C3A621B781B04AF
:102230001A46BB691343BB613B6A5A1C3A621B785E
:102240001B061A46BB691343BB617B6A03F1A053AB
:102250001A68BB699A4212D0424B1B78DBB203F07A
:102260007003FB75FB7D002B02D03E4AFB7D137093
:102270007B6A03F1A053BA691A60FFF745FF7B6AD6
:1022800004337B627B68043B7B605FE0FB69002B6F
:1022900002D0FB69022B33D17B68012B30D93B6A1A
:1022A0005A1C3A621B78BB823B6A5A1C3A621B7802
:1022B0001B021AB2B7F9143013431BB2BB827B6AFC
:1022C00003F1A0531B88BA8A9A4212D0254B1B787F
:1022D000DBB203F07003FB74FB7C002B02D0214ABD
:1022E000FB7C13707B6A03F1A053BA8A1A80FFF754
:1022F0000BFF7B6A02337B627B68023B7B6025E0DD
:102300003B6A5A1C3A621B78BB747B6A03F1A05388
:102310001B78DBB2BA7C9A4212D0124B1B78DBB22C
:1023200003F070037B747B7C002B02D00D4A7B7C16
:1023300013707B6A03F1A053BA7C1A70FFF7E4FEB6
:102340007B6A01337B627B68013B7B607B68002B8F
:102350007FF451AF00E000BF2837BD4680BD00BF0D
:102360000100024000000240844641EA000313F0ED
:1023700003036DD1403A41D351F8043B40F8043B8C
:1023800051F8043B40F8043B51F8043B40F8043B4F
:1023900051F8043B40F8043B51F8043B40F8043B3F
:1023A00051F8043B40F8043B51F8043B40F8043B2F
:1023B00051F8043B40F8043B51F8043B40F8043B1F
:1023C00051F8043B40F8043B51F8043B40F8043B0F
:1023D00051F8043B40F8043B51F8043B40F8043BFF
:1023E00051F8043B40F8043B51F8043B40F8043BEF
:1023F00051F8043B40F8043B403ABDD2303211D38F
:1024000051F8043B40F8043B51F8043B40F8043BCE
:1024100051F8043B40F8043B51F8043B40F8043BBE
:10242000103AEDD20C3205D351F8043B40F8043B8E
:10243000043AF9D2043208D0D2071CBF11F8013B8C
:1024400000F8013B01D30B8803806046704700BF52
:10245000082A13D38B078DD010F003038AD0C3F161
:102460000403D21ADB071CBF11F8013B00F8013B43
:1024700080D331F8023B20F8023B7BE7043AD9D302
:10248000013A11F8013B00F8013BF9D20B780370D7
:102490004B7843708B7883706046704780B500AF8F
:1024A000104B1B6803F48023002B01D004F018FFAD
:1024B0000C4B1B6803F48063002B01D001F00EF974
:1024C000084B1B6803F40063002B01D001F0DAFE17
:1024D000044B1B6803F48053002BE1D002F060FB37
:1024E000DEE700BF3480044080B500AFFFF7D6FFC1
:1024F00000BF80BD80B400AF034B10221A8000BF24
:10250000BD465DF8047B70470020054080B400AFF5
:1025100000BFBD465DF8047B704700BF584B4CF2CE
:10252000205210B51A804DF628121A8000BF00BF45
:10253000FFF7E0FF534B4FF030621A60524A9A6047
:10254000524ADA60524B4FF470021A60514A1368D3
:1025500013F4807304D150490B604FF4A8531360F7
:102560004E4B1A78100703D51A7842F008021A70F9
:102570004B4B4C492A221A704B4A4C4B8B4204D28B
:1025800052F8040F43F8040BF8E7494B494A00217D
:10259000934202D243F8041BFAE7474A4748002314
:1025A00050F8231042F823100133662BF8D1444B26
:1025B000444A802103F8011B9342FBD1424B3E4A1F
:1025C0001A60424B8A221A70A3F5805324225A7053
:1025D000A0221A709A799107FCD59A79D206FCD478
:1025E0003B4A937903F00C03082B394BF9D10322B2
:1025F0001A7146225A719A799406FCD534498A791F
:10260000334B5006FBD5334A4FF0827111600921DC
:10261000516020221A709A7902F00C020C2AFAD129
:102620002D4B2E4A1A602E4B2E4A1A6000225A60F9
:10263000072243F8042C2C4AC3F80C2D62B600F094
:1026400063F9154B1B68DA0705D5284800F040F9F7
:10265000274B284A1A60284B1B785B0609D5244C67
:10266000244B22689A4204D1204800F031F900231B
:1026700023600FF063FFFFF749FF0BF021FFFEE738
:102680000E20054030800440823F04000100002BF2
:1026900088ED00E010D0034014D0034002D0074082
:1026A00000E00740D011FF1F74580100F806FF1F1B
:1026B000D011FF1F5C1FFF1F0002FF1F0000000062
:1026C00000E400E056E400E008ED00E000500640C1
:1026D000004006404480044004800440C0100500CF
:1026E00014E000E0BFD40100000020200000000042
:1026F0001CE00340A5C3945A00F0074080B584B0A5
:1027000000AF7860104B1B68FB607B68002B16D015
:102710006B46BB607B68FA681A44BB68A3F500533C
:102720009A4207D30FF004FF02460C2313604FF0C8
:10273000FF3305E07B68FA681344034A1360FB68C3
:1027400018461037BD4680BD7007FF1F80B400AF2C
:10275000FEE700BF80B487B000AF4FF480737B61A9
:10276000EFF313833B613B69002B02D04FF0FF3343
:1027700025E0EFF31083FB60FB68002B01D0002302
:102780001DE0EFF30583BB60BB68002B0AD0BB687C
:102790000F2B02D800237B6104E0BA680B4B134473
:1027A0001B787B61EFF311837B607B68002B05D086
:1027B0007A687B699A4201D27B687B617B691846A3
:1027C0001C37BD465DF8047B704700BFF0E300E0B6
:1027D00080B582B000AF786078680FF0D9FE03460C
:1027E00018460837BD4680BD80B582B000AF78601E
:1027F00078680FF0CDFE034618460837BD4680BD09
:1028000080B582B000AF786078680FF0C9FE00BF75
:102810000837BD4680BD00BF80B489B000AFF86006
:10282000B9607A600023FB617A68FB68B3FBF2F160
:1028300002FB01F29B1A7B61FB69BA681A447B694F
:10284000092B05D87B69DBB23033DBB25BB204E025
:102850007B69DBB23733DBB25BB213707B68FA683B
:10286000B2FBF3F3FB60FB68002B03D0FB69013381
:10287000FB61D9E700BFFB690133BA68134400224A
:102880001A700023BB6118E0BB69BA6813441B7857
:10289000FB74BB69BA681344FA69B9680A4492F9CF
:1028A00000201A70FB69BA681344FA7C1A70BB697D
:1028B0000133BB61FB69013BFB61BA69FB699A4269
:1028C000E2DBBB6818462437BD465DF8047B7047E1
:1028D00080B483B000AF7860084B00221A60084BC8
:1028E00000221A60074A7B681360044B10221A60AA
:1028F00000BF0C37BD465DF8047B704714D0034021
:1029000004D0034000D0034080B500AF454B4FF0EA
:1029100000621A60434B4FF080521A60414B4FF0F7
:1029200000521A603F4B4FF080421A603D4B4FF00F
:1029300000421A603C4B00221A603C4B4EF6FF727C
:102940001A603B4B28221A603A4B28221A603A4BF5
:1029500028221A60394B28221A60394B28221A6023
:10296000384B28221A60384B28221A60374B28220D
:102970001A60374B28221A60364B28221A60364BD1
:1029800028221A60354B28221A60354B28221A60FB
:10299000344B28221A60344B28221A60334B2822E9
:1029A0001A60334B09221A60324B00221A60324BF4
:1029B0004EF6FF721A60314B28221A60304B2822E3
:1029C0001A60304B09221A602F4B00221A602F4BDD
:1029D0004EF6FF721A602E4B28221A602D4B2822C9
:1029E0001A602D4B09221A602C4B00221A602C4BC6
:1029F0004EF6FF721A60164B28221A60154B2822D9
:102A00001A60284B09221A60FFF74AFA322000F0B8
:102A10002BF904F021FE4FF4AF7000F025F900BF50
:102A200080BD00BF04E100E0048003400880034053
:102A30000C800340148003401C800340248003402A
:102A40002C800340348003403C800340448003409A
:102A50000C900B4014900B401C900B4024900B40AA
:102A60002C900B4034900B403C900B4044900B401A
:102A70000080034004900340089003400C90034002
:102A8000149003400090034004800B4008800B40EA
:102A90000C800B4014800B4000800B4004900B40D6
:102AA00008900B4000900B4080B485B000AF034607
:102AB0000A46FB711346BB71FB793F2B34D8FB7977
:102AC0001C4A52F8333003F520731B78DBB2002B1D
:102AD00013D0BB79002B07D0FB79164A52F833305C
:102AE000803301221A7020E0FB79124A52F8333009
:102AF00003F5807301221A7017E0FB790D4ADB00A1
:102B000013445B68FB60BB79002B06D0FB681B6835
:102B100043F00302FB681A6007E0FB681B6823F0C0
:102B20000202FB681A6000E000BF1437BD465DF882
:102B3000047B7047D84A010080B485B000AF0346DB
:102B40000A46FB711346BB71FB793F2B4CD8FB79CE
:102B5000284ADB0013445B68FB60BB79012B02D081
:102B6000BB79042B1CD1FB79224A52F8333003F590
:102B7000207301221A70FB684FF4A2721A60BB79AD
:102B8000042B06D1FB681B6843F02002FB681A6027
:102B90002BE0FB681B6823F02002FB681A6024E02E
:102BA000FB79144A52F8333003F5207300221A706F
:102BB000BB79002B04D1FB684FF480721A6014E0DB
:102BC000BB79022B04D1FB6840F203121A600CE0BF
:102BD000BB79032B04D1FB684FF481721A6004E0C7
:102BE000FB6800221A6000E000BF1437BD465DF8A4
:102BF000047B7047D84A010080B485B000AF72B63C
:102C0000154B1B68BB60154B1B68FB60144B1B68A6
:102C10007B6062B67B6803F08063002B05D0BB68E5
:102C2000322B02D9FB680133FB60BB68C3F5EA3382
:102C3000BF33BB60FB684FF47A7202FB03F2BB68E0
:102C40000849A1FB03139B09134418461437BD46DA
:102C50005DF8047B704700BF18E000E02812FF1FFA
:102C600004ED00E08988888880B584B000AF786082
:102C7000FFF7C2FFF8607B68002B16D009E07B6885
:102C8000013B7B607B68002B0ED0FB6803F57A73F9
:102C9000FB60FFF7B1FF0246FB68D31AB3F57A7FFA
:102CA000EDD205F0ADF8E9E700BF1037BD4680BDB5
:102CB00080B483B000AF78603B4A3B4B1B6843F461
:102CC00080631360394B00221A70394B00221A704E
:102CD000384B00221A70384B00221A70374B0022F2
:102CE0001A70374B1B78152B08D01B2B0BD0002BE1
:102CF0000ED1344B40F213321A6009E0324B40F2ED
:102D000013321A6004E0314B40F213321A6000BFF4
:102D10002F4B1B78052B08D01A2B0BD0012B0ED173
:102D20002C4B4FF451721A6009E02B4B4FF4517247
:102D30001A6004E0294B4FF451721A6000BF7B689F
:102D40001F2B01D820237B60254A7B685B0BDBB2FD
:102D500003F01F03DBB21370214A7B685B09DBB20F
:102D600053701F4A7B68DBB203F01F03DBB2937220
:102D70001B4B04229A701A4B0222DA74184B04225D
:102D80005A75174B88221A74154B3C22DA70154B72
:102D900040221A70144B4FF000421A6000BF0C37EB
:102DA000BD465DF8047B7047348004403E13FF1F2E
:102DB0003F13FF1F3C13FF1F3D13FF1F3013FF1F67
:102DC0004013FF1F40A0044018C004403C90044042
:102DD0007407FF1F44A004401CC004403890044006
:102DE00000A006401FE400E000E100E080B485B0F0
:102DF00000AF78603E4B9B78FB73FB7B23F01303A3
:102E0000DAB27B68DBB203F00303DBB21343FB737C
:102E10007B6803F00403002B03D0FB7B43F010031B
:102E2000FB73334AFB7B93707B6803F00F03042B27
:102E300007D12F4A2E4B9B79DBB243F04003DBB224
:102E400093712B4B5B79DBB223F01003FB737B6830
:102E500003F01003002B03D0FB7B43F01003FB7344
:102E6000234AFB7B5371224B9B79DBB223F0100387
:102E7000FB737B6803F02003002B03D0FB7B43F044
:102E80001003FB731A4AFB7B9371194B9B7ADBB2DD
:102E900003F01F03FB737B6803F00803002B03D0D0
:102EA000FB7B43F02003FB73114AFB7B93727B682F
:102EB000DBB223F07F03DAB20E4B1A707B6803F4A7
:102EC0008073002B0DD00A4B5B78BB73084A084B0C
:102ED0001B78DBB243F02003DBB21370044ABB7BE8
:102EE000537000BF1437BD465DF8047B704700BFC8
:102EF00000A006402C12FF1F80B500AF2A4B1B68B4
:102F000003F48063002B4DD001E004F079FF274BE0
:102F10001B78DBB2002BF8D1254B4FF000421A6032
:102F2000244B0022DA70244B1B78152B08D01B2B66
:102F30000BD0002B0ED1214B40F203121A6009E096
:102F40001F4B40F203121A6004E01E4B40F20312C2
:102F50001A6000BF1C4B1B7803F07F03052B08D0C1
:102F60001A2B0BD0012B0ED1184B40F203121A6012
:102F700009E0174B40F203121A6004E0154B40F2CF
:102F800003121A6000BF144B00221A70134B002268
:102F90001A70134B1B68002B05D0114B1B680122C4
:102FA0001A7000E000BF80BD348004403013FF1F62
:102FB00080E100E000A006404013FF1F40A0044055
:102FC00018C004403C9004407407FF1F44A0044014
:102FD0001CC00440389004403E13FF1F3F13FF1FE6
:102FE0003813FF1F80B582B000AF0346FB7100BFEE
:102FF0000C4B1B78DBB2002BFAD1FB790121184670
:10300000FFF79AFDFB7900211846FFF74DFDFB798C
:10301000054A52F83330054A136000BF0837BD46F1
:1030200080BD00BF3013FF1FD84A01003413FF1FBB
:1030300080B485B000AF03460A46FB711346BB71EE
:10304000BB79002B03D0FB7963F07F03FB71274B27
:103050001B78FA799A4242D0254B1B6803F48063AF
:10306000002B38D0214B1B7803F07F03052B07D0B2
:103070001A2B09D0012B0BD11E4B00221A6007E03E
:103080001D4B00221A6003E01C4B00221A6000BF97
:10309000BB79002B02D06023FB6001E04423FB607E
:1030A000FB7903F07F03052B09D01A2B0DD0012BE0
:1030B00011D1104AFB6843F4407313600BE00E4AD1
:1030C000FB6843F44073136005E00C4AFB6843F46B
:1030D0004073136000BF054AFB79137000E000BF26
:1030E0001437BD465DF8047B704700BF7407FF1FAF
:1030F0003480044044A004401CC004403890044084
:1031000080B483B000AF0346FB711F4B1B78FA7984
:103110009A4233D01D4B1B6803F48063002B29D0E7
:10312000194B1B78152B07D01B2B09D0002B0BD16B
:10313000174B00221A6007E0164B00221A6003E0CA
:10314000154B00221A6000BFFB79152B08D01B2BF2
:103150000BD0002B0ED10E4B40F213321A6009E057
:103160000C4B40F213321A6004E00B4B40F2133266
:103170001A6000BF044AFB79137000E000BF0C37EF
:10318000BD465DF8047B70474013FF1F3480044048
:1031900040A0044018C004403C90044080B582B078
:1031A00000AF0346FB71124B1B6803F48063002BD6
:1031B00001D1002317E0FB793F2B10D8FB790D4A92
:1031C00052F833300C4A1360FB7901211846FFF79F
:1031D000B3FC094B1B6800221A70012303E0064B65
:1031E00000221A60002318460837BD4680BD00BF84
:1031F00034800440D84A01003813FF1F80B483B0E4
:1032000000AF0346FB71184B1B6803F48063002B6F
:1032100001D1002322E0FB79122B04D1134B40F2A1
:1032200002321A6011E0FB79142B04D1104B40F2EA
:1032300002321A6009E00F4A0E4B5B7BDBB223F0CF
:103240000103DBB25373002308E00A4A094B5B7B9E
:10325000DBB243F00103DBB25373012318460C3792
:10326000BD465DF8047B7047348004400CA00440E8
:1032700014C0044000A0064080B586B000AF78605E
:103280003B4B1B6803F48063002B6CD0394B1B68ED
:10329000002B03D0374B1B6801221A70364B1B786A
:1032A000DBB27B617B6901337B617B693F2B42D958
:1032B00000237B613FE0FFF74DFAF860FB68402B8D
:1032C00034DC2E4B1B79DBB25BB2002B33DA2C4B98
:1032D0001B78DBB23B613B6901333B613B693F2BB0
:1032E00001D900233B61274A3B6932F813309BB276
:1032F000BB60254B1B78002B0FD020491F4B9B79BF
:10330000DBB223F04003DAB2BB689B08DBB203F008
:103310004003DBB21343DBB28B71184BBA68D2B2F5
:10332000DA713B69DAB2164B1A7004E0FB68FF2BC6
:1033300001DD04F065FD124B1B78DBB21A467B6998
:103340009A42B8D07B6899B20E4A7B6922F8131072
:103350000E4B01221A707B69DAB2074B1A70074BC9
:10336000BC22DA7000E000BF1837BD4680BD00BF48
:10337000348004403413FF1F3C13FF1F00A006409D
:103380003D13FF1F3012FF1F2C12FF1F3013FF1FB2
:1033900080B588B000AF786039607B68FB61FA69FE
:1033A0003B6813443B61444B1B6803F48063002B70
:1033B0007DD0424B1B68002B71D0404B1B68012213
:1033C0001A706CE03E4B1B78DBB2BB61BB6901330A
:1033D000BB61BB693F2B01D90023BB61394B1B7813
:1033E000DBB21A46BB699A4249D1374BBC22DA702C
:1033F000FFF7B0F9F860FB68402B34DC324B1B79E7
:10340000DBB25BB2002B33DA2E4B1B78DBB27B6175
:103410007B6901337B617B693F2B01D900237B6191
:103420002A4A7B6932F813309BB2BB60284B1B7869
:10343000002B0FD02449244B9B79DBB223F04003AF
:10344000DAB2BB689B08DBB203F04003DBB2134384
:10345000DBB28B711C4BBA68D2B2DA717B69DAB21B
:10346000184B1A7004E0FB68FF2B01DD04F0C8FC68
:10347000144B1B78DBB21A46BB699A42B8D0FB6981
:103480005A1CFA611B7899B2104ABB6922F81310D2
:10349000104B01221A70BB69DAB2094B1A70FA6933
:1034A0003B699A428ED3084BBC22DA7000E000BF21
:1034B0002037BD4680BD00BF348004403413FF1F59
:1034C0003C13FF1F3D13FF1F00A006403012FF1FDB
:1034D0002C12FF1F3013FF1F80B500AF01E004F076
:1034E0008FFC034B1B78DBB2002BF8D100BF80BDF3
:1034F0003013FF1F80B483B000AF0D4B1B78DBB2DD
:103500007B600C4B1B78DBB23B607A683B689A426D
:1035100004D33A687B68D31A3F3303E03A687B6888
:10352000D31A013B18460C37BD465DF8047B704743
:103530003C13FF1F3D13FF1F80B483B000AF0D4B42
:103540001B78DBB27B600C4B1B78DBB23B607A688C
:103550003B689A4203D37A683B68D31A03E07A68DF
:103560003B68D31A403318460C37BD465DF8047BE0
:10357000704700BF3E13FF1F3F13FF1F80B485B08D
:1035800000AF204B1B78DBB27B601F4B1B78DBB29C
:10359000FB607A68FB689A4202D14FF0FF332BE060
:1035A000FB680133FB60FB683F2B01D90023FB6004
:1035B000164AFB6832F813309BB23B60FB68DAB204
:1035C000114B1A70124B1B68002B14D07A68FB68E1
:1035D0009A4204D37A68FB68D31ABB6004E07A6825
:1035E000FB68D31A4033BB60BB681A2B03DC084B63
:1035F0001B6800221A703B6818461437BD465DF8F8
:10360000047B70473E13FF1F3F13FF1FB012FF1FC5
:103610003813FF1F80B483B000AF114B1B78DBB2AF
:103620003B60104B1B78DBB27B603A687B689A4248
:1036300002D14FF0FF330CE07B6801337B607B6885
:103640003F2B01D900237B60074A7B6832F8133097
:103650009BB218460C37BD465DF8047B704700BF2F
:103660003E13FF1F3F13FF1FB012FF1F80B400AFB8
:10367000154B1B6803F48063002B20D0134A134BB7
:10368000DB78DBB223F03403DBB2D3700F4B402284
:103690005A740E4A0D4BDB78DBB243F03403DBB2D5
:1036A000D3700B4B1B78DAB20A4B1A700A4B1B68AB
:1036B000002B05D0084B1B6800221A7000E000BFE9
:1036C000BD465DF8047B70473480044000A006408E
:1036D0003F13FF1F3E13FF1F3813FF1F80B489B035
:1036E00000AF704B1B79DBB203F03003002B63D0CB
:1036F00072B66C4B9B7DFB73FB7B002B07D1694B38
:10370000DB79FB71674B40225A7462B654E062B6B3
:10371000654B1B78DBB2FB61644B1B78DBB2BB6192
:10372000634B1B78002B0CD05E4B9B79DBB25BB2FA
:10373000002B06DA5B4BDB79DBB243F480737B61F1
:1037400003E0584BDB79DBB27B61FB6901333B6102
:103750003B693F2B01D900233B613A69BB699A421F
:1037600007D03B69FB617B6999B2524AFB6922F839
:103770001310FB7B013BFB73FB7B002BD0D1FB6960
:10378000DAB2494B1A704C4B1B68002B14D0FA6903
:10379000BB699A4204D3FA69BB69D31ABB6004E0DF
:1037A000FA69BB69D31A4033BB60BB68272B03DDC2
:1037B000414B1B6801221A703A4BDB78FB7197F979
:1037C0000730002B4EDA374B1B79DBB25BB2002B94
:1037D00048DA3A4B1B78DBB2FB61394B1B78DBB222
:1037E000BB61BA69FB699A422ED0BB690133BB61E8
:1037F000BB693F2B01D90023BB612A4B1B79FB73AB
:10380000304ABB6932F813309BB27B61284B1B787E
:10381000002B0FD02349234B9B79DBB223F04003CD
:10382000DAB27B699B08DBB203F04003DBB21343DF
:10383000DBB28B711B4B7A69D2B2DA71194B1B7DEB
:10384000DBB2072BCDD900E000BFBB69DAB21C4B5D
:103850001A70144B1B79DBB25BB2002B02DA114BEE
:103860007C22DA70FB7903F04003002B14D00D4B5F
:103870001B79DBB203F04003002B0DD0124B00226A
:103880001A70124B1B68002B03D0104B1B680022D0
:103890001A70044B3C22DA7000BF2437BD465DF835
:1038A000047B704700A006403E13FF1F3F13FF1F1D
:1038B0002C12FF1FB012FF1F3813FF1F3C13FF1FF6
:1038C0003D13FF1F3012FF1F3013FF1F3413FF1F64
:1038D00080B483B000AF7860354A354B1B6843F441
:1038E00000631360334B00221A70334B00221A70AE
:1038F000324B00221A70324B00221A70314B0022D8
:103900001A70314B1B78092B02D03B2B05D009E0F4
:103910002E4B40F213321A6004E02D4B40F213326A
:103920001A6000BF2B4B1B780A2B02D03A2B05D014
:1039300009E0294B4FF451721A6004E0274B4FF411
:1039400051721A6000BF7B681F2B01D820237B6057
:10395000234A7B685B0BDBB203F01F03DBB21370FF
:103960001F4A7B685B09DBB253701D4A7B68DBB280
:1039700003F01F03DBB29372194B04229A70184BA9
:103980000222DA74164B04225A75154B88221A74D7
:10399000134B3422DA70134B40221A70124B02225E
:1039A0001A6000BF0C37BD465DF8047B704700BF4E
:1039B000348004402214FF1F2314FF1F2014FF1F14
:1039C0002114FF1F1414FF1F7507FF1F0CB00440C4
:1039D00004D004407607FF1F10B0044000D004401C
:1039E00000B0064021E400E004E100E080B485B0CE
:1039F00000AF78603E4B9B78FB73FB7B23F0130397
:103A0000DAB27B68DBB203F00303DBB21343FB7370
:103A10007B6803F00403002B03D0FB7B43F010030F
:103A2000FB73334AFB7B93707B6803F00F03042B1B
:103A300007D12F4A2E4B9B79DBB243F04003DBB218
:103A400093712B4B5B79DBB223F01003FB737B6824
:103A500003F01003002B03D0FB7B43F01003FB7338
:103A6000234AFB7B5371224B9B79DBB223F010037B
:103A7000FB737B6803F02003002B03D0FB7B43F038
:103A80001003FB731A4AFB7B9371194B9B7ADBB2D1
:103A900003F01F03FB737B6803F00803002B03D0C4
:103AA000FB7B43F02003FB73114AFB7B93727B6823
:103AB000DBB223F07F03DAB20E4B1A707B6803F49B
:103AC0008073002B0DD00A4B5B78BB73084A084B00
:103AD0001B78DBB243F02003DBB21370044ABB7BDC
:103AE000537000BF1437BD465DF8047B704700BFBC
:103AF00000B006404113FF1F80B500AF234B1B6889
:103B000003F40063002B3ED001E004F079F9204B70
:103B10001B78DBB2002BF8D11E4B02221A601E4B21
:103B20000022DA701D4B1B78092B02D03B2B05D0ED
:103B300008E01B4B40F203121A6003E0194B00220D
:103B40001A6000BF184B1B7803F07F030A2B02D0CA
:103B50003A2B05D008E0154B40F203121A6003E03F
:103B6000134B00221A6000BF124B00221A70124B36
:103B700000221A70114B1B68002B05D00F4B1B68DD
:103B800001221A7000E000BF80BD00BF34800440F5
:103B90001414FF1F84E100E000B006407507FF1F0A
:103BA0000CB0044004D004407607FF1F10B004405E
:103BB00000D004402214FF1F2314FF1F1C14FF1FFA
:103BC00080B582B000AF0346FB7100BF0C4B1B7881
:103BD000DBB2002BFAD1FB7901211846FEF7ACFFCE
:103BE000FB7900211846FEF75FFFFB79054A52F882
:103BF0003330054A136000BF0837BD4680BD00BFA3
:103C00001414FF1FD84A01001814FF1F80B485B098
:103C100000AF03460A46FB711346BB71BB79002B0C
:103C200003D0FB7963F07F03FB71214B1B78FA799A
:103C30009A4236D01F4B1B6803F40063002B2CD034
:103C40001B4B1B7803F07F030A2B02D03A2B04D0C6
:103C500007E0194B00221A6003E0184B00221A609B
:103C600000BFBB79002B02D06023FB6001E044233E
:103C7000FB60FB7903F07F030A2B02D03A2B06D0BE
:103C80000BE00D4AFB6843F44073136005E00B4AF8
:103C9000FB6843F44073136000BF054AFB7913705F
:103CA00000E000BF1437BD465DF8047B704700BFDD
:103CB0007607FF1F3480044010B0044000D0044059
:103CC00080B483B000AF0346FB711A4B1B78FA79BE
:103CD0009A4228D0184B1B6803F40063002B1ED0B7
:103CE000144B1B78092B02D03B2B04D007E0134B5D
:103CF00000221A6003E0124B00221A6000BFFB7919
:103D0000092B02D03B2B05D009E00C4B40F21332BB
:103D10001A6004E00A4B40F213321A6000BF054AF1
:103D2000FB79137000E000BF0C37BD465DF8047BE3
:103D3000704700BF7507FF1F348004400CB004407B
:103D400004D0044080B582B000AF0346FB71124B33
:103D50001B6803F40063002B01D1002317E0FB79FB
:103D60003F2B10D8FB790D4A52F833300C4A1360C0
:103D7000FB7901211846FEF7DFFE094B1B68002284
:103D80001A70012303E0064B00221A600023184634
:103D90000837BD4680BD00BF34800440D84A0100CA
:103DA0001C14FF1F80B483B000AF0346FB71184B97
:103DB0001B6803F40063002B01D1002322E0FB7990
:103DC000172B04D1134B40F202321A6011E0FB7939
:103DD0003C2B04D1104B40F202321A6009E00F4A2A
:103DE0000E4B5B7BDBB223F00103DBB2537300238A
:103DF00008E00A4A094B5B7BDBB243F00103DBB20C
:103E00005373012318460C37BD465DF8047B704799
:103E10003480044008B0044008D0044000B006409C
:103E200080B586B000AF78603B4B1B6803F400633D
:103E3000002B6CD0394B1B68002B03D0374B1B6811
:103E400001221A70364B1B78DBB27B617B69013330
:103E50007B617B69272B42D900237B613FE0FEF722
:103E600079FCF860FB68402B34DC2E4B1B79DBB20D
:103E70005BB2002B33DA2C4B1B78DBB23B613B6926
:103E800001333B613B69272B01D900233B61274A62
:103E90003B6932F813309BB2BB60254B1B78002B7B
:103EA0000FD020491F4B9B79DBB223F04003DAB2DD
:103EB000BB689B08DBB203F04003DBB21343DBB209
:103EC0008B71184BBA68D2B2DA713B69DAB2164B11
:103ED0001A7004E0FB68FF2B01DD03F091FF124B29
:103EE0001B78DBB21A467B699A42B8D07B6899B2DC
:103EF0000E4A7B6922F813100E4B01221A707B695F
:103F0000DAB2074B1A70074B8822DA7000E000BF64
:103F10001837BD4680BD00BF348004401814FF1F11
:103F20002014FF1F00B006402114FF1F4413FF1F81
:103F30004113FF1F1414FF1F80B588B000AF7860D5
:103F400039607B68FB61FA693B6813443B61444B11
:103F50001B6803F40063002B7DD0424B1B68002BD1
:103F600071D0404B1B6801221A706CE03E4B1B78ED
:103F7000DBB2BB61BB690133BB61BB69272B01D9D4
:103F80000023BB61394B1B78DBB21A46BB699A42EE
:103F900049D1374B8822DA70FEF7DCFBF860FB680A
:103FA000402B34DC324B1B79DBB25BB2002B33DAB3
:103FB0002E4B1B78DBB27B617B6901337B617B69B4
:103FC000272B01D900237B612A4A7B6932F8133001
:103FD0009BB2BB60284B1B78002B0FD02449244B8D
:103FE0009B79DBB223F04003DAB2BB689B08DBB2FB
:103FF00003F04003DBB21343DBB28B711C4BBA6896
:10400000D2B2DA717B69DAB2184B1A7004E0FB683D
:10401000FF2B01DD03F0F4FE144B1B78DBB21A46D4
:10402000BB699A42B8D0FB695A1CFA611B7899B2F5
:10403000104ABB6922F81310104B01221A70BB6999
:10404000DAB2094B1A70FA693B699A428ED3084B6F
:104050008822DA7000E000BF2037BD4680BD00BF77
:10406000348004401814FF1F2014FF1F2114FF1F69
:1040700000B006404413FF1F4113FF1F1414FF1F1D
:1040800080B500AF01E003F0BBFE034B1B78DBB251
:10409000002BF8D100BF80BD1414FF1F80B483B083
:1040A00000AF0D4B1B78DBB27B600C4B1B78DBB297
:1040B0003B607A683B689A4204D33A687B68D31ABB
:1040C000273303E03A687B68D31A013B18460C3764
:1040D000BD465DF8047B70472014FF1F2114FF1FAD
:1040E00080B483B000AF0D4B1B78DBB27B600C4B10
:1040F0001B78DBB23B607A683B689A4203D37A68EC
:104100003B68D31A03E07A683B68D31A40331846F9
:104110000C37BD465DF8047B704700BF2214FF1FBB
:104120002314FF1F80B485B000AF204B1B78DBB297
:104130007B601F4B1B78DBB2FB607A68FB689A429E
:1041400002D14FF0FF332BE0FB680133FB60FB68CB
:104150003F2B01D90023FB60164AFB6832F813306D
:104160009BB23B60FB68DAB2114B1A70124B1B68B2
:10417000002B14D07A68FB689A4204D37A68FB68F3
:10418000D31ABB6004E07A68FB68D31A4033BB6083
:10419000BB681A2B03DC084B1B6800221A703B68B3
:1041A00018461437BD465DF8047B70472214FF1F84
:1041B0002314FF1F9413FF1F1C14FF1F80B483B030
:1041C00000AF114B1B78DBB23B60104B1B78DBB2AE
:1041D0007B603A687B689A4202D14FF0FF330CE073
:1041E0007B6801337B607B683F2B01D900237B60B8
:1041F000074A7B6832F813309BB218460C37BD462D
:104200005DF8047B704700BF2214FF1F2314FF1FBB
:104210009413FF1F80B400AF154B1B6803F40063B9
:10422000002B20D0134A134BDB78DBB223F034038E
:10423000DBB2D3700F4B40225A740E4A0D4BDB7821
:10424000DBB243F03403DBB2D3700B4B1B78DAB232
:104250000A4B1A700A4B1B68002B05D0084B1B68D1
:1042600000221A7000E000BFBD465DF8047B704775
:104270003480044000B006402314FF1F2214FF1FA7
:104280001C14FF1F80B489B000AF704B1B79DBB2E8
:1042900003F03003002B63D072B66C4B9B7DFB7335
:1042A000FB7B002B07D1694BDB79FB71674B40220D
:1042B0005A7462B654E062B6654B1B78DBB2FB61A0
:1042C000644B1B78DBB2BB61634B1B78002B0CD0BB
:1042D0005E4B9B79DBB25BB2002B06DA5B4BDB7982
:1042E000DBB243F480737B6103E0584BDB79DBB2D4
:1042F0007B61FB6901333B613B693F2B01D90023A3
:104300003B613A69BB699A4207D03B69FB617B69B3
:1043100099B2524AFB6922F81310FB7B013BFB73F5
:10432000FB7B002BD0D1FB69DAB2494B1A704C4BA6
:104330001B68002B14D0FA69BB699A4204D3FA694E
:10434000BB69D31ABB6004E0FA69BB69D31A403376
:10435000BB60BB68272B03DD414B1B6801221A7031
:104360003A4BDB78FB7197F90730002B4EDA374B6D
:104370001B79DBB25BB2002B48DA3A4B1B78DBB21D
:10438000FB61394B1B78DBB2BB61BA69FB699A42AE
:104390002ED0BB690133BB61BB69272B01D9002338
:1043A000BB612A4B1B79FB73304ABB6932F813306F
:1043B0009BB27B61284B1B78002B0FD02349234BEA
:1043C0009B79DBB223F04003DAB27B699B08DBB256
:1043D00003F04003DBB21343DBB28B711B4B7A69F2
:1043E000D2B2DA71194B1B7DDBB2072BCDD900E0BD
:1043F00000BFBB69DAB21C4B1A70144B1B79DBB2DD
:104400005BB2002B02DA114B4822DA70FB7903F021
:104410004003002B14D00D4B1B79DBB203F040039B
:10442000002B0DD0124B00221A70124B1B68002B70
:1044300003D0104B1B6800221A70044B3422DA7030
:1044400000BF2437BD465DF8047B704700B00640CE
:104450002214FF1F2314FF1F4113FF1F9413FF1F7C
:104460001C14FF1F2014FF1F2114FF1F4413FF1FE4
:104470001414FF1F1814FF1F80B483B000AF7860BE
:10448000254A254B1B6843F480531360234B0022BD
:104490001A70234B00221A70224B00221A70224BF2
:1044A00000221A70214B00221A70214B40F2133265
:1044B0001A60204B4FF451721A607B681F2B01D891
:1044C00020237B601C4A7B685B0BDBB203F01F037D
:1044D000DBB21370184A7B685B09DBB25370164A73
:1044E0007B68DBB203F01F03DBB29372124B002236
:1044F0009A70114B00221A740F4B2C22DA700F4B5A
:1045000040221A700E4B08221A6000BF0C37BD46BD
:104510005DF8047B704700BF348004400615FF1F20
:104520000715FF1F0415FF1F0515FF1FF814FF1FB8
:1045300008C004400CC0044000C0064023E400E072
:1045400004E100E080B485B000AF78603E4B9B781A
:10455000FB73FB7B23F01303DAB27B68DBB203F05F
:104560000303DBB21343FB737B6803F00403002BEC
:1045700003D0FB7B43F01003FB73334AFB7B937048
:104580007B6803F00F03042B07D12F4A2E4B9B7936
:10459000DBB243F04003DBB293712B4B5B79DBB2B0
:1045A00023F01003FB737B6803F01003002B03D090
:1045B000FB7B43F01003FB73234AFB7B5371224BBD
:1045C0009B79DBB223F01003FB737B6803F02003BD
:1045D000002B03D0FB7B43F01003FB731A4AFB7BD9
:1045E0009371194B9B7ADBB203F01F03FB737B685B
:1045F00003F00803002B03D0FB7B43F02003FB7385
:10460000114AFB7B93727B68DBB223F07F03DAB243
:104610000E4B1A707B6803F48073002B0DD00A4B8D
:104620005B78BB73084A084B1B78DBB243F020036E
:10463000DBB21370044ABB7B537000BF1437BD4616
:104640005DF8047B704700BF00C006402414FF1FC4
:1046500080B500AF164B1B6803F48053002B24D0A9
:1046600001E003F0CDFB134B1B78DBB2002BF8D13C
:10467000114B08221A60114B0022DA70104B40F2E5
:1046800003121A600F4B40F203121A600E4B002205
:104690001A700E4B00221A700D4B1B68002B05D0B0
:1046A0000B4B1B6801221A7000E000BF80BD00BFE9
:1046B00034800440F814FF1F84E100E000C006408D
:1046C00008C004400CC004400615FF1F0715FF1F5B
:1046D0000015FF1F80B582B000AF0346FB7100BF1D
:1046E0000C4B1B78DBB2002BFAD1FB790121184669
:1046F000FEF722FAFB7900211846FEF7D5F9FB797F
:10470000054A52F83330054A136000BF0837BD46EA
:1047100080BD00BFF814FF1FD84A0100FC14FF1F22
:1047200080B485B000AF03460A46FB711346BB71E7
:10473000BB79002B03D0FB7963F07F03FB71194B2E
:104740001B78FA799A4226D0174B1B6803F48053E2
:10475000002B1CD0134B1B7803F07F03082B03D1D5
:10476000124B00221A6000BFBB79002B02D06023DD
:10477000FB6001E04423FB60FB7903F07F03082B1F
:1047800005D10A4AFB6843F44073136000BF054A31
:10479000FB79137000E000BF1437BD465DF8047B61
:1047A000704700BF7707FF1F348004400CC00440EF
:1047B00080B483B000AF0346FB7100BF0C37BD4629
:1047C0005DF8047B704700BF80B582B000AF034640
:1047D000FB71124B1B6803F48053002B01D10023A3
:1047E00017E0FB793F2B10D8FB790D4A52F8333094
:1047F0000C4A1360FB7901211846FEF79DF9094B1D
:104800001B6800221A70012303E0064B00221A6085
:10481000002318460837BD4680BD00BF34800440E1
:10482000D84A01000015FF1F80B483B000AF0346D3
:10483000FB71144B1B6803F48053002B01D1002340
:1048400019E0FB790E2B0DD10F4B40F202321A60AA
:104850000E4A0E4B5B7BDBB243F00103DBB25373BA
:10486000012308E0094A094B5B7BDBB223F001031B
:10487000DBB25373002318460C37BD465DF8047B4A
:10488000704700BF3480044004C0044000C00640AC
:1048900080B586B000AF78603B4B1B6803F4805353
:1048A000002B6CD0394B1B68002B03D0374B1B6897
:1048B00001221A70364B1B78DBB27B617B690133B6
:1048C0007B617B69272B42D900237B613FE0FDF7A9
:1048D00041FFF860FB68402B34DC2E4B1B79DBB2C8
:1048E0005BB2002B33DA2C4B1B78DBB23B613B69AC
:1048F00001333B613B69272B01D900233B61274AE8
:104900003B6932F813309BB2BB60254B1B78002B00
:104910000FD020491F4B9B79DBB223F04003DAB262
:10492000BB689B08DBB203F04003DBB21343DBB28E
:104930008B71184BBA68D2B2DA713B69DAB2164B96
:104940001A7004E0FB68FF2B01DD03F059FA124BEB
:104950001B78DBB21A467B699A42B8D07B6899B261
:104960000E4A7B6922F813100E4B01221A707B69E4
:10497000DAB2074B1A70074BAC22DA7000E000BFC6
:104980001837BD4680BD00BF34800440FC14FF1FB3
:104990000415FF1F00C006400515FF1F2814FF1F48
:1049A0002414FF1FF814FF1F80B584B000AF786097
:1049B00039607B68FB6006E0FB685A1CFA601B7874
:1049C0001846FFF765FF3B685A1E3A60002BF3D18B
:1049D00000BF1037BD4680BD80B500AF01E003F0D9
:1049E0000FFA034B1B78DBB2002BF8D100BF80BD60
:1049F000F814FF1F80B483B000AF0D4B1B78DBB2FF
:104A00007B600C4B1B78DBB23B607A683B689A4258
:104A100004D33A687B68D31A273303E03A687B688B
:104A2000D31A013B18460C37BD465DF8047B70472E
:104A30000415FF1F0515FF1F80B483B000AF0D4B99
:104A40001B78DBB27B600C4B1B78DBB23B607A6877
:104A50003B689A4203D37A683B68D31A03E07A68CA
:104A60003B68D31A403318460C37BD465DF8047BCB
:104A7000704700BF0615FF1F0715FF1F80B485B0E4
:104A800000AF204B1B78DBB27B601F4B1B78DBB287
:104A9000FB607A68FB689A4202D14FF0FF332BE04B
:104AA000FB680133FB60FB683F2B01D90023FB60EF
:104AB000164AFB6832F813309BB23B60FB68DAB2EF
:104AC000114B1A70124B1B68002B14D07A68FB68CC
:104AD0009A4204D37A68FB68D31ABB6004E07A6810
:104AE000FB68D31A4033BB60BB681A2B03DC084B4E
:104AF0001B6800221A703B6818461437BD465DF8E3
:104B0000047B70470615FF1F0715FF1F7814FF1F52
:104B10000015FF1F80B483B000AF114B1B78DBB2D0
:104B20003B60104B1B78DBB27B603A687B689A4233
:104B300002D14FF0FF330CE07B6801337B607B6870
:104B40003F2B01D900237B60074A7B6832F8133082
:104B50009BB218460C37BD465DF8047B704700BF1A
:104B60000615FF1F0715FF1F7814FF1F80B400AF45
:104B7000084B1B78DAB2084B1A70084B1B68002BE5
:104B800003D0064B1B6800221A7000BFBD465DF8BB
:104B9000047B70470715FF1F0615FF1F0015FF1F39
:104BA00080B487B000AF5D4B1B79DBB203F020030C
:104BB000002B4CD05A4B1B78002B0CD0574B9B79B9
:104BC000DBB25BB2002B06DA544BDB79DBB243F489
:104BD0008073FB6003E0514BDB79DBB2FB60514B30
:104BE0001B78DBB201337B617B693F2B01D900234A
:104BF0007B614D4B1B78DBB21A467B699A4209D028
:104C0000FB6899B2494A7B6922F813107B69DAB2D2
:104C1000444B1A70464B1B68002B18D0454B1B7831
:104C2000DBB23B617A693B699A4204D37A693B699A
:104C3000D31ABB6004E07A693B69D31A4033BB6086
:104C4000BB68272B03DD3A4B1B6801221A70334BDC
:104C5000DB78FB7197F90730002B3FDA2F4B1B797C
:104C6000DBB25BB2002B39DA334B1B78DBB27B61F2
:104C7000304B1B78DBB23B617A693B699A4203D1C6
:104C8000264B6C22DA7029E03B6901333B613B69BA
:104C9000272B01D900233B61284A3B6932F81330A6
:104CA0009BB2FB601E4B1B78002B0FD01B491B4B8C
:104CB0009B79DBB223F04003DAB2FB689B08DBB2DE
:104CC00003F04003DBB21343DBB28B71134BFA6882
:104CD000D2B2DA713B69DAB2164B1A70FB7903F083
:104CE0004003002B14D00D4B1B79DBB203F04003C3
:104CF000002B0DD0124B00221A70124B1B68002B98
:104D000003D0104B1B6800221A70044B2C22DA705F
:104D100000BF1C37BD465DF8047B704700C00640ED
:104D20002414FF1F0615FF1F0715FF1F7814FF1F10
:104D30000015FF1F0515FF1F0415FF1F2814FF1F77
:104D4000F814FF1FFC14FF1F80B483B000AF78601D
:104D5000324A324B1B6843F400531360304B00223D
:104D60001A70304B00221A702F4B00221A702F4BF2
:104D700000221A702E4B00221A702E4B1B781F2B0C
:104D800002D03F2B05D009E02B4B40F213321A60C2
:104D900004E02A4B40F213321A6000BF284B1B7804
:104DA000202B02D03E2B05D009E0264B4FF4517248
:104DB0001A6004E0244B4FF451721A6000BF7B6804
:104DC0001F2B01D820237B60204A7B685B0BDBB262
:104DD00003F01F03DBB213701C4A7B685B09DBB274
:104DE00053701A4A7B68DBB203F01F03DBB2937285
:104DF000164B00229A70154B00221A74134B2C226A
:104E0000DA70134B40221A70124B20221A6000BF36
:104E10000C37BD465DF8047B704700BF348004400A
:104E2000EA15FF1FEB15FF1FE815FF1FE915FF1F10
:104E3000DC15FF1F7807FF1F28A0044014D0044092
:104E40007907FF1F2CA0044010D0044000D006407A
:104E500025E400E004E100E080B485B000AF7860B4
:104E60003E4B9B78FB73FB7B23F01303DAB27B682A
:104E7000DBB203F00303DBB21343FB737B6803F085
:104E80000403002B03D0FB7B43F01003FB73334A76
:104E9000FB7B93707B6803F00F03042B07D12F4A31
:104EA0002E4B9B79DBB243F04003DBB293712B4B6B
:104EB0005B79DBB223F01003FB737B6803F0100314
:104EC000002B03D0FB7B43F01003FB73234AFB7BD7
:104ED0005371224B9B79DBB223F01003FB737B6889
:104EE00003F02003002B03D0FB7B43F01003FB7384
:104EF0001A4AFB7B9371194B9B7ADBB203F01F03B9
:104F0000FB737B6803F00803002B03D0FB7B43F0AB
:104F10002003FB73114AFB7B93727B68DBB223F0A7
:104F20007F03DAB20E4B1A707B6803F48073002B98
:104F30000DD00A4B5B78BB73084A084B1B78DBB279
:104F400043F02003DBB21370044ABB7B537000BFF5
:104F50001437BD465DF8047B704700BF00D00640A3
:104F60000815FF1F80B500AF234B1B6803F40053E7
:104F7000002B3ED001E002F043FF204B1B78DBB258
:104F8000002BF8D11E4B20221A601E4B0022DA7033
:104F90001D4B1B781F2B02D03F2B05D008E01B4B6D
:104FA00040F203121A6003E0194B00221A6000BF9E
:104FB000184B1B7803F07F03202B02D03E2B05D02B
:104FC00008E0154B40F203121A6003E0134B002275
:104FD0001A6000BF124B00221A70124B00221A7086
:104FE000114B1B68002B05D00F4B1B6801221A7058
:104FF00000E000BF80BD00BF34800440DC15FF1F0F
:1050000084E100E000D006407807FF1F28A004409C
:1050100014D004407907FF1F2CA0044010D0044096
:10502000EA15FF1FEB15FF1FE415FF1F80B582B0C7
:1050300000AF0346FB7100BF0C4B1B78DBB2002BAB
:10504000FAD1FB7901211846FDF776FDFB790021A5
:105050001846FDF729FDFB79054A52F83330054A19
:10506000136000BF0837BD4680BD00BFDC15FF1FC1
:10507000D84A0100E015FF1F80B485B000AF034699
:105080000A46FB711346BB71BB79002B03D0FB7939
:1050900063F07F03FB71214B1B78FA799A4236D07B
:1050A0001F4B1B6803F40053002B2CD01B4B1B78A9
:1050B00003F07F03202B02D03E2B04D007E0194BD6
:1050C00000221A6003E0184B00221A6000BFBB796F
:1050D000002B02D06023FB6001E04423FB60FB79DE
:1050E00003F07F03202B02D03E2B06D00BE00D4AAD
:1050F000FB6843F44073136005E00B4AFB6843F41C
:105100004073136000BF054AFB79137000E000BFD5
:105110001437BD465DF8047B704700BF7907FF1F59
:10512000348004402CA0044010D0044080B483B0EC
:1051300000AF0346FB711A4B1B78FA799A4228D0CC
:10514000184B1B6803F40053002B1ED0144B1B7824
:105150001F2B02D03F2B04D007E0134B00221A6014
:1051600003E0124B00221A6000BFFB791F2B02D014
:105170003F2B05D009E00C4B40F213321A6004E0DB
:105180000A4B40F213321A6000BF054AFB791370D4
:1051900000E000BF0C37BD465DF8047B704700BFE0
:1051A0007807FF1F3480044028A0044014D0044036
:1051B00080B582B000AF0346FB71124B1B6803F44D
:1051C0000053002B01D1002317E0FB793F2B10D8AF
:1051D000FB790D4A52F833300C4A1360FB790121F8
:1051E0001846FDF7A9FC094B1B6800221A70012321
:1051F00003E0064B00221A60002318460837BD461C
:1052000080BD00BF34800440D84A0100E415FF1F70
:1052100080B483B000AF0346FB71002318460C37FF
:10522000BD465DF8047B704780B586B000AF7860FE
:105230003B4B1B6803F40053002B6CD0394B1B68AD
:10524000002B03D0374B1B6801221A70364B1B789A
:10525000DBB27B617B6901337B617B69272B42D9A0
:1052600000237B613FE0FDF775FAF860FB68402B97
:1052700034DC2E4B1B79DBB25BB2002B33DA2C4BC8
:105280001B78DBB23B613B6901333B613B69272BF8
:1052900001D900233B61274A3B6932F813309BB2A6
:1052A000BB60254B1B78002B0FD020491F4B9B79EF
:1052B000DBB223F04003DAB2BB689B08DBB203F039
:1052C0004003DBB21343DBB28B71184BBA68D2B226
:1052D000DA713B69DAB2164B1A7004E0FB68FF2BF7
:1052E00001DD02F08DFD124B1B78DBB21A467B69A3
:1052F0009A42B8D07B6899B20E4A7B6922F81310A3
:105300000E4B01221A707B69DAB2074B1A70074BF9
:10531000AC22DA7000E000BF1837BD4680BD00BF88
:1053200034800440E015FF1FE815FF1F00D0064041
:10533000E915FF1F0C15FF1F0815FF1FDC15FF1FC8
:1053400080B584B000AF786039607B68FB6006E0B0
:10535000FB685A1CFA601B781846FFF765FF3B682C
:105360005A1E3A60002BF3D100BF1037BD4680BDF6
:1053700080B500AF01E002F043FD034B1B78DBB2C8
:10538000002BF8D100BF80BDDC15FF1F80B483B0B7
:1053900000AF0D4B1B78DBB27B600C4B1B78DBB294
:1053A0003B607A683B689A4204D33A687B68D31AB8
:1053B000273303E03A687B68D31A013B18460C3761
:1053C000BD465DF8047B7047E815FF1FE915FF1F18
:1053D00080B483B000AF0D4B1B78DBB27B600C4B0D
:1053E0001B78DBB23B607A683B689A4203D37A68E9
:1053F0003B68D31A03E07A683B68D31A40331846F7
:105400000C37BD465DF8047B704700BFEA15FF1FEF
:10541000EB15FF1F80B485B000AF204B1B78DBB2CB
:105420007B601F4B1B78DBB2FB607A68FB689A429B
:1054300002D14FF0FF332BE0FB680133FB60FB68C8
:105440003F2B01D90023FB60164AFB6832F813306A
:105450009BB23B60FB68DAB2114B1A70124B1B68AF
:10546000002B14D07A68FB689A4204D37A68FB68F0
:10547000D31ABB6004E07A68FB68D31A4033BB6080
:10548000BB681A2B03DC084B1B6800221A703B68B0
:1054900018461437BD465DF8047B7047EA15FF1FB8
:1054A000EB15FF1F5C15FF1FE415FF1F80B483B0D1
:1054B00000AF114B1B78DBB23B60104B1B78DBB2AB
:1054C0007B603A687B689A4202D14FF0FF330CE070
:1054D0007B6801337B607B683F2B01D900237B60B5
:1054E000074A7B6832F813309BB218460C37BD462A
:1054F0005DF8047B704700BFEA15FF1FEB15FF1F27
:105500005C15FF1F80B400AF084B1B78DAB2084B64
:105510001A70084B1B68002B03D0064B1B68002237
:105520001A7000BFBD465DF8047B7047EB15FF1F86
:10553000EA15FF1FE415FF1F80B487B000AF5D4B75
:105540001B79DBB203F02003002B4CD05A4B1B78A5
:10555000002B0CD0574B9B79DBB25BB2002B06DAE9
:10556000544BDB79DBB243F48073FB6003E0514BB7
:10557000DB79DBB2FB60514B1B78DBB201337B6123
:105580007B693F2B01D900237B614D4B1B78DBB23C
:105590001A467B699A4209D0FB6899B2494A7B69ED
:1055A00022F813107B69DAB2444B1A70464B1B6821
:1055B000002B18D0454B1B78DBB23B617A693B6905
:1055C0009A4204D37A693B69D31ABB6004E07A69D2
:1055D0003B69D31A4033BB60BB68272B03DD3A4BD2
:1055E0001B6801221A70334BDB78FB7197F9073087
:1055F000002B3FDA2F4B1B79DBB25BB2002B39DA81
:10560000334B1B78DBB27B61304B1B78DBB23B61E9
:105610007A693B699A4203D1264B6C22DA7029E001
:105620003B6901333B613B69272B01D900233B6177
:10563000284A3B6932F813309BB2FB601E4B1B7843
:10564000002B0FD01B491B4B9B79DBB223F040038F
:10565000DAB2FB689B08DBB203F04003DBB2134312
:10566000DBB28B71134BFA68D2B2DA713B69DAB2F2
:10567000164B1A70FB7903F04003002B14D00D4B2E
:105680001B79DBB203F04003002B0DD0124B00223C
:105690001A70124B1B68002B03D0104B1B680022A2
:1056A0001A70044B2C22DA7000BF1C37BD465DF81F
:1056B000047B704700D006400815FF1FEA15FF1F46
:1056C000EB15FF1F5C15FF1FE415FF1FE915FF1FFA
:1056D000E815FF1F0C15FF1FDC15FF1FE015FF1F4E
:1056E00080B483B000AF7860254A254B1B6843F433
:1056F00080631360234B00221A70234B00221A7020
:10570000224B00221A70224B00221A70214B0022D9
:105710001A70214B40F213321A60204B4FF4517231
:105720001A607B681F2B01D820237B601C4A7B6892
:105730005B0BDBB203F01F03DBB21370184A7B680C
:105740005B09DBB25370164A7B68DBB203F01F03C0
:10575000DBB29372124B00229A70114B00221A7422
:105760000F4B2C22DA700F4B40221A700E4B042282
:105770001A6000BF0C37BD465DF8047B704700BF60
:1057800028800440CE16FF1FCF16FF1FCC16FF1F28
:10579000CD16FF1FC016FF1F64D0044060D0044028
:1057A00000A00E4042E400E008E100E080B485B0D3
:1057B00000AF78603E4B9B78FB73FB7B23F01303B9
:1057C000DAB27B68DBB203F00303DBB21343FB7393
:1057D0007B6803F00403002B03D0FB7B43F0100332
:1057E000FB73334AFB7B93707B6803F00F03042B3E
:1057F00007D12F4A2E4B9B79DBB243F04003DBB23B
:1058000093712B4B5B79DBB223F01003FB737B6846
:1058100003F01003002B03D0FB7B43F01003FB735A
:10582000234AFB7B5371224B9B79DBB223F010039D
:10583000FB737B6803F02003002B03D0FB7B43F05A
:105840001003FB731A4AFB7B9371194B9B7ADBB2F3
:1058500003F01F03FB737B6803F00803002B03D0E6
:10586000FB7B43F02003FB73114AFB7B93727B6845
:10587000DBB223F07F03DAB20E4B1A707B6803F4BD
:105880008073002B0DD00A4B5B78BB73084A084B22
:105890001B78DBB243F02003DBB21370044ABB7BFE
:1058A000537000BF1437BD465DF8047B704700BFDE
:1058B00000A00E40EC15FF1F80B500AF164B1B6813
:1058C00003F48063002B24D001E002F099FA134B1B
:1058D0001B78DBB2002BF8D1114B04221A60114B5C
:1058E0000022DA70104B40F203121A600F4B40F2A4
:1058F00003121A600E4B00221A700E4B00221A700F
:105900000D4B1B68002B05D00B4B1B6801221A7036
:1059100000E000BF80BD00BF28800440C016FF1F0C
:1059200088E100E000A00E4064D0044060D0044054
:10593000CE16FF1FCF16FF1FC816FF1F80B582B0FF
:1059400000AF0346FB7100BF0C4B1B78DBB2002B92
:10595000FAD1FB7901211846FDF7EEF8FB79002119
:105960001846FDF7A1F8FB79054A52F83330054A8D
:10597000136000BF0837BD4680BD00BFC016FF1FC3
:10598000D84A0100C416FF1F80B485B000AF03469B
:105990000A46FB711346BB71BB79002B03D0FB7920
:1059A00063F07F03FB71194B1B78FA799A4226D07A
:1059B000174B1B6803F48063002B1CD0134B1B7820
:1059C00003F07F03212B03D1124B00221A6000BF8A
:1059D000BB79002B02D06023FB6001E04423FB6015
:1059E000FB7903F07F03212B05D10A4AFB6843F4BE
:1059F0004073136000BF054AFB79137000E000BFDD
:105A00001437BD465DF8047B704700BF7A07FF1F5F
:105A10002880044060D0044080B483B000AF0346C7
:105A2000FB7100BF0C37BD465DF8047B704700BFBB
:105A300080B582B000AF0346FB71124B1B6803F4C4
:105A40008063002B01D1002317E0FB793F2B10D896
:105A5000FB790D4A52F833300C4A1360FB7901216F
:105A60001846FDF769F8094B1B6800221A700123DC
:105A700003E0064B00221A60002318460837BD4693
:105A800080BD00BF28800440D84A0100C816FF1F0F
:105A900080B483B000AF0346FB71144B1B6803F462
:105AA0008063002B01D1002319E0FB79182B0DD165
:105AB0000F4B40F202321A600E4A0E4B5B7BDBB298
:105AC00043F00103DBB25373012308E0094A094B99
:105AD0005B7BDBB223F00103DBB253730023184678
:105AE0000C37BD465DF8047B704700BF288004403A
:105AF00068D0044000A00E4080B586B000AF78604A
:105B00003B4B1B6803F48063002B6CD0394B1B6844
:105B1000002B03D0374B1B6801221A70364B1B78C1
:105B2000DBB27B617B6901337B617B69272B42D9C7
:105B300000237B613FE0FCF70DFEF860FB68402B23
:105B400034DC2E4B1B79DBB25BB2002B33DA2C4BEF
:105B50001B78DBB23B613B6901333B613B69272B1F
:105B600001D900233B61274A3B6932F813309BB2CD
:105B7000BB60254B1B78002B0FD020491F4B9B7916
:105B8000DBB223F04003DAB2BB689B08DBB203F060
:105B90004003DBB21343DBB28B71184BBA68D2B24D
:105BA000DA713B69DAB2164B1A7004E0FB68FF2B1E
:105BB00001DD02F025F9124B1B78DBB21A467B6936
:105BC0009A42B8D07B6899B20E4A7B6922F81310CA
:105BD0000E4B01221A707B69DAB2074B1A70074B21
:105BE000AC22DA7000E000BF1837BD4680BD00BFB0
:105BF00028800440C416FF1FCC16FF1F00A00E40D3
:105C0000CD16FF1FF015FF1FEC15FF1FC016FF1F5D
:105C100080B584B000AF786039607B68FB6006E0D7
:105C2000FB685A1CFA601B781846FFF765FF3B6853
:105C30005A1E3A60002BF3D100BF1037BD4680BD1D
:105C400080B500AF01E002F0DBF8034B1B78DBB25C
:105C5000002BF8D100BF80BDC016FF1F80B483B0F9
:105C600000AF0D4B1B78DBB27B600C4B1B78DBB2BB
:105C70003B607A683B689A4204D33A687B68D31ADF
:105C8000273303E03A687B68D31A013B18460C3788
:105C9000BD465DF8047B7047CC16FF1FCD16FF1F75
:105CA00080B483B000AF0D4B1B78DBB27B600C4B34
:105CB0001B78DBB23B607A683B689A4203D37A6810
:105CC0003B68D31A03E07A683B68D31A403318461E
:105CD0000C37BD465DF8047B704700BFCE16FF1F32
:105CE000CF16FF1F80B485B000AF204B1B78DBB20E
:105CF0007B601F4B1B78DBB2FB607A68FB689A42C3
